:400000000010002011000000350400003504000008B500F029FAC04610B5124C22688023DB0213432360182000F038FC22680E4B134023600D4A0E4B1A6010220D4B1A60EE
:40004000802212060C4B1A600C4A0D4B1A6009200C4900F0F1FB092000F0E2FB00220A4B1A6010BD00010B40FFFFFBFF0600008004010B400C02024008010B40CF000080B2
:4000800000000240D50A00000C020B4038B572B60122254B1A700024244D0CE063001B195B00EB1899881A8858880004104300F041FA0134E4B2012CF0D91C49081C0C3073
:4000C0002C3100F01BFA99231B04194A1360EE210902184A1160184A1360184A13600122174B1A600222174B1A60174B19780A431A70164A11783C2081431420014311708B
:40010000197816220A431A702023114A1360C4218902104A1160104A1360D82212010F4B1A60FFF779FF38BD1C700F40F41F0000000001400C00014000500F4030500F40D8
:400140002000004000800F4000700F4001700F400000044008000440180004400803044010B5064C2378002B07D1054B002B02D0044800E000BF0123237010BD48010020BC
:4001800000000000D41F000008B5084B002B03D00748084900E000BF07480368002B03D0064B002B00D0984708BDC04600000000D41F00004C010020C80000200000000009
:4001C000014B1A681A607047C00F074010B5054C2068FE21890500F02DFD206000F0BEF910BDC0469801002000B585B0021C01A8034901F0B5FA01A800F0BCFA05B000BD74
:40020000D81F0000F0B55F4656464D464446F0B483B0824689460092002101918B463CE05346F91863B29A005058D3189B00F3184A46D15800F06AFE011C281C00F0FAFC3A
:40024000051C0134E4B209E000255C4643465FB2BF00331C4E46B94657469A4663B2042BDEDDB1465646BA4600998B1941464AB29200D55043460133DBB2984605E0D846F6
:40028000019A53B29E00F618B60041464BB2042BDADD019B0133DBB20193019A53B2042BEDDD03B03CBC90469946A246AB46F0BDF8B55F4656464D464446F0B480460022CB
:4002C00091469246C027BF051DE04246951963B29B4601F009FA01F0D9F8391C00F016FE5A46930058510134E4B205E054464A4653B29E00F618B60063B2042BE5DD4B46B8
:400300000133DBB299464A4653B2042BEEDD3CBC90469946A246AB46F8BDC04608B500F03BF9074B181A074900F034FC01F00AF9054B1860054B1A68054B1A6008BDC04655
:40034000C05D000000366E019C010020980100209401002008B500F01FF9064900F01AFC01F0F0F8044B1860044B1A68044B1A6008BDC04600366E01A00100209801002052
:4003800090010020F0B5CDB072B6204800F024FA1F4800F067F962B600F086F900F02EF901F0A2F901F070F91A4F1B4E1B4D33A8FFF77EFF1AA8FFF77BFFFFF7AFFF33A858
:4003C0001AA901AAFFF71EFFFFF7C4FFFA20800000F042FA3868316800F0C2FE296800F029FC0F4B196800F025FC0E4C20600E4800F0C0F9206801F029F8FFF7F5FE0B48D3
:4004000000F0B8F90A4800F0B5F9D0E7C1010000CD01000090010020940100209C010020A00100208C010020DC1F0000E81F0000F01F0000FEE7C04608B5094B1B68181893
:40044000084A821A802A02DC054A106005E001F0E7F80C23036001235B42181C08BDC046CC000020A8010020F8B50F4F0F4E002412E031687368B568221C02E001C901C3CE
:400480000432AA42FAD1F168221C01E010C304328A42FBD11036013F002FEAD101F0C6F8FFF770FFFEE7C04601000000C421000038B500230D4C0E4D0E4808E0032B02D8D7
:4004C0009A00515900E0211C9A00115001332F2BF4D9FFF7DBFD0022074B1A608023DB05196801220A431A6038BDC046350400000000000000000020C0000020F0B50022A0
:400500000027FF239C4611E0BB00C658F3B26446A64308E054000C192578AD1964782C700132013BDBB2002BF4D10137072FEBD9F0BDC04608B50A1C002101F09DF808BD32
:40054000024B197880220A431A70704771000F40014B18707047C04682000F40014B1878C0B2704762000F4008B5011C014800F047FA08BD20000F4008B5024800F04AFAD2
:4005800008BDC04640000F4008B5011C014800F037FA08BD00000F4008B5034B1B78034800F038FA08BDC04600000F4040000F4010B5082401E0FFF7DFFFFFF7CFFF044225
:4005C000F9D110BD10B50B4C201CFFF7CDFF201CFFF7DAFF00F01AF9074B197810220A431A7000F017F9FFF7E3FF0120FFF7B0FF10BDC046BF5D000092000F4008B5064BD4
:400600001B78002B04D1FFF7DDFF0122024B1A70FFF796FF08BDC04664010020014B18647047C0460000002010B5041C00F0EEF8054B1968C0229143A2010C1C14431C60FB
:4006400000F0E8F810BDC04600E400E00122014B1A60704700E100E00122014B1A60704780E100E010B5041CFFF7F6FF201CFFF7D5FF0320FFF7D8FFFFF7E8FF10BDC0465B
:4006800008B500F069F808BD08B500F01DF808BD08B5044B1968802212060A431A60FFF7EFFF08BD0000074008B5064B1B78002B04D1FFF7E9FF0122024B1A70FFF7E8FF8C
:4006C00008BDC0466501002010B5124A124B1A600023124A13600121114A1160114A12480260072411480460114803601148016011490A60114A1360114A1360114A13602E
:40070000114A1360114A13600421114A1160114A136010BD0B000002000007404000074048000740070000800003074004030740100307404400074000020740040207408D
:40074000880E0740C80E0740480F0740080F0740C80F0740880F0740044B1968044A0A40902109040A431A607047C04600000140FFFF0FFF38B5051C002402E000F0FCF997
:400780000134285D0028F9D138BDC046014BD8667047C0460000002010B5041C00F036F8044B1A6892009208A40714431C6000F031F810BD08E400E080221201014B1A6080
:4007C0007047C04600E100E080221201014B1A607047C04680E100E010B5041CFFF7F4FF201CFFF7D3FF0320FFF7D6FFFFF7E4FF10BDC046000000000230800804D0C04602
:400800000138FDD1C046C046C0467047EFF3108072B6704780F310887047C046C046C0461F23184001238340181C014B1860704700E100E001BE704738B5041C0D1C1F28DF
:4008400002D90020FFF7F6FFA400024BE4182068256038BD4000002070B5041C80252D02074E04E03068FFF7C7FF064BE418AC42F8D8034B58686043FFF7BEFF70BDC046FB
:40088000D00000200080FFFF08B5034B1B7A5843FFF7B2FF08BDC046D0000020F0B557464E464546E0B4041CFFF7B0FF8046E51E2D2D73D83F4B1B78DBB2A34208D33E4B12
:4008C0001B78DBB29A463D4B1B78DBB2994631E03B4B1B78DBB2A34208D33A4B1B78DBB29A46394B1B78DBB2994623E0374B1B78DBB2A34208D3364B1B78DBB29A46354B8C
:400900001B78DBB2994615E0334B1B78DBB2A34208D3324B1B78DBB29A46314B1B78DBB2994607E02F4B1B78DBB29A462E4B1B78DBB299462D4B5E5D2F2E09D92A2C07D9EC
:4009400019222B4B1A600520FFF756FF192703E0274B1F683F231F40BE4206D2234B5A5D234B1A600520FFF747FF1F4AA4182278D2B2204B1A60204B52461A601F4B4A461A
:400980001A600520FFF780FFBE420AD9174B5A5D174B1A600520FFF72FFF02E00020FFF749FF4046FFF736FF1CBC90469946A246F0BDC046C0F1FF0FC1F1FF0FC2F1FF0FA9
:4009C000C3F1FF0FC4F1FF0FC5F1FF0FC6F1FF0FC7F1FF0FC8F1FF0FC9F1FF0FCAF1FF0FCBF1FF0FCCF1FF0FCDF1FF0FF82000002CFF0B4028FF0B401CFF0B4020FF0B409A
:400A0000CBB203700B0ADBB24370090CC9B281707047C046027843781B0213438078000418437047044B1A68C0231B021A4201D0012000E00020704700010B4008B5FFF7A8
:400A4000E5FE044B1968C02212020A431A60FFF7E1FE08BD00010B4010B5FFF7D7FE084B1968084A11408024E4012143196019680A40802109020A431A60FFF7CBFE10BDE9
:400A800000010B40FF3FFFFF38B5051CFFF7BEFE041CFFF7C7FF002803D0FFF7DDFF012200E00022084B1D40084B1868084901400D431D601B68012A01D1FFF7BFFF201CCE
:400AC000FFF7A8FE38BDC0460404040010020B40FBFBFBFF10B5244B1B685A0715D5234B1B685A070ED5224B9C69042214401F490868A0430860996991439961DB68002B82
:400B000000D098470420FFF7BFFF174B1B685A0518D5164B1B685A0510D5154B9A698020C0001040114A1168814311609969114A0A409A611B69002B00D098478020C00059
:400B4000FFF7A2FF084B1B685A030CD5074B1B685A0304D5064B5B69002B00D098478020C002FFF791FF10BD10020B40E000002068010020FFFBFFFF04490F220B681340F9
:400B8000082BFBD0024B18607047C0460802074040020740002934D00123002210B488422CD301242407A14204D2814202D209011B01F8E7E400A14204D2814202D24900B9
:400BC0005B00F8E7884201D3401A1A434C08A04202D3001B5C0822438C08A04202D3001B9C082243CC08A04202D3001BDC082243002803D01B0901D00909E3E7101C10BC55
:400C00007047002801D00020C04307B4024802A14018029003BDC046190000000029F0D003B5FFF7B9FF0EBC4243891A1847C0467047C046F8B543024400C50F4E0248006B
:400C4000240E2A1C9B09000EC90FB6098D425BD0221A002A00DC89E000281DD1002E00D075E0580704D00F221A40042A00D004338021C90419402A1C00293AD00134FF2C12
:400C800000D17FE09B015B0A5B02E4B2E405580AD20720431043F8BDFF2CE2D08021C9040E431B2A00DD2DE1311C2020D140821A9640721E96410E439B1B5801D1D59B019C
:400CC0009F09381C00F08EFC421F974094425BDC141B1F231B1B3A1C9F40611C3B1CCA405F1EBB4113430024BBE7131EB9D100230022DB08FF2C04D1002B43D08020C00366
:400D000003435B025B0ABFE7211A002940DD002823D0FF2CA5D08020C00406431B2900DDEEE0301C2027C840791A8E40711E8E4106439B19590100D493E70134FF2C55D0A9
:400D4000714901221A400B405B08134389E7013A002AB1D0FF2CA4D183E7002E00D180E701390029E5D0FF2CD8D17AE7002A1BD1621CD2B2012A4BDD9F1B7A0123D5F71A7C
:400D80000D1C9EE700237FE75F4BA41A3B4068E7002946D1611CC8B2012829DDFF2924D0F3185B080C1C5CE7002C13D0FF2818D08024E404524223431B2A4DDD0123F31A2B
:400DC000041C0D1C79E7002F00D07AE70023002200248EE7002B3BD0D243002AEFD0FF28EAD1331CFF240D1C3BE7FF24002380E7002C5CD1002B00D180E0002E00D130E7C1
:400E00009B19580100D42CE73F4A0124134028E7002C15D1002B40D1002E63D0331C0D1C1FE7002C21D1002B54D0C943002904D0FF284CD01B2958DD01239B19041C79E7F7
:400E4000002B19D1002E48D0331C0D1CFF2408E7331C041C0D1C04E71C1C2025D440AA1A93405A1E93412343A9E7FF282FD08024E40449422343DDE7FF24002E00D1F0E641
:400E80008022DB08D203134204D0F608164201D1331C0D1CDB00FF24E3E6002E00D1E0E69A1B500100D420E7F31A0D1CD9E6002B0DD0FF24002E00D1D3E68022DB08D20370
:400EC0001342E7D0F6081642E4D1331CE2E7331CFF24C6E6331C041CC3E6802300229B04FF2406E7231C002203E71C1C2027CC40791A8B40591E8B4123439EE7331CB0E6D2
:400F0000012616E70126D7E6FFFFFFFBF0B55F4656464D464446F0B44402460083B00F1C640A360EC50F002E41D0FF2E22D080231B0400201C43E4007F3E82468046391C77
:400F40004B007F02C90F7F0A1B0E8B463BD0FF2B34D0802212041743FF007F3B00215A466A40019252460A430F2A63D87A48920082589746002C3FD10822022392469846A3
:400F8000DDE70195404602282AD1019A01251540FF2300246402DB05600AED071843284303B03CBC90469946A246AB46F0BD002C27D10420012282469046C0E7391C4A1E13
:400FC00091410231CBE70121002FC8D0381C00F009FB431F9F4076235B421B1A0021BEE7032800D1AEE001284FD1019842461040C5B200230024CDE70C2303209A468046E9
:401000009DE7201C00F0EEFA7626431F9C4076420023361A9A46984691E780240025E403FF23B7E75B463C1C01938846AAE73C1C8846A7E7250C24043A0C240C3F04F618AD
:401040003F0C211C231C794353436F435543FB180A0C9B18B1469F4202D980225202AD1809041A04090C521894011B0C611E8C41920EED181443AD012C43230105D50122D7
:4010800063080120144081441C434B467F33002B2DDD600704D00F222240042A00D00434220103D52D4B1C404B468033FE2B17DD019B01251D400024FF236BE78020C00366
:4010C000044208D0074206D1041C3C436402640A5D46FF235EE704436402640AFF2359E70198A4010125640ADBB2054052E77E235B424A469B1A1B2B05DD019B01251D4011
:401100000024002346E7221CDA404B469E339C40231C5C1EA3411343580704D00F221A40042A00D004335A0105D5019B01251D40002401232EE701989C010125640A0540FF
:40114000002327E78027FF03019B3C43640201251D40640AFF231DE728210000FFFFFFF7F8B5C20F430244004D024800240E161C9B09000EC90FAD09FF2800D183E00127FB
:4011800079408A425CD0221A002A00DC8EE000281ED1002D00D07AE0580704D00F221A40042A00D004338021C90401221940324000293AD00134FF2C00D183E09B015B0A49
:4011C0005B02E4B2E405580AD20720431043F8BDFF2CE1D08021C9040D431B2A00DD31E1291C2020D140821A95406A1E95410D435B1B5801D0D59B019F09381C00F0F2F903
:40120000421F974094425FDC141B1F231B1B3A1C9F40611C3B1CCA405F1EBB4113430024BAE7131EB8D100230022DB08FF2C04D1002B47D08020C00303435B025B0ABFE7E2
:40124000211A002944DD002827D0FF2CA4D08020C00405431B2900DDF2E0281C2027C840791A8D40691E8D4105435B19590100D492E70134FF2C59D0734901221A400B40D4
:401280005B08134388E7002D00D07AE777E7013A002AADD0FF2CA0D17EE7002D00D17BE701390029E1D0FF2CD4D175E7002A1BD1621CD2B2012A4BDD5F1B7A0123D5EF1A66
:4012C0000E1C9AE700237BE75F4BA41A3B4063E7002946D1611CC8B2012829DDFF2924D0EB185B080C1C57E7002C13D0FF2818D08024E404524223431B2A4DDD0123EB1A07
:40130000041C0E1C75E7002F00D076E70023002200248AE7002B3BD0D243002AEFD0FF28EAD12B1CFF240E1C36E7FF2400237CE7002C5CD1002B00D180E0002D00D12BE79C
:401340005B19580100D427E73F4A0124134023E7002C15D1002B40D1002D63D02B1C0E1C1AE7002C21D1002B54D0C943002904D0FF284CD01B2958DD01235B19041C75E74D
:40138000002B19D1002D48D02B1C0E1CFF2403E72B1C041C0E1CFFE61C1C2026D440B21A93405A1E93412343A9E7FF282FD08024E40449422343DDE7FF24002D00D1EBE613
:4013C0008022DB08D203134204D0ED08154201D12B1C0E1CDB00FF24DEE6002D00D1DBE65A1B500100D41CE7EB1A0E1CD4E6002B0DD0FF24002D00D1CEE68022DB08D2039D
:401400001342E7D0ED081542E4D12B1CE2E72B1CFF24C1E62B1C041CBEE6802300229B04FF2402E7231C0022FFE61C1C2027CC40791A8B40591E8B4123439EE72B1CABE6CE
:40144000012512E70125D3E6FFFFFFFB4302590A4300C20F1B0E00207E2B0DDD9D2B0CDC802000040143952B0ADC9620C31AD9404842002A00D1081C7047034BD018FBE77C
:40148000963B9940F4E7C046FFFFFF7F70B5041E3CD0C60F00D04442201C00F0A3F89E23251C1B1A962B0CDC083884406402640ADBB2321C6402DB05600AD2071843104316
:4014C00070BD992B0ADD0522121A211CD1400A1C011C1B318D40691E8D411543052801DD421F9540164C2C406A0704D00F221540042D00D0043461010CD59F23181AFF28F9
:401500001AD0A401640AC3B2321CD3E7002200230024CFE7E408FF2B04D06402640ADBB2321CC7E7002C04D08020C00304436402640A321CFF23BDE7321CFF230024B9E705
:40154000FFFFFFFB10B5041E33D000F04BF89E231B1A962B09DC083884406402640ADBB26402DB05600A184310BD992B0ADD0522121A211CD1400A1C011C1B318C40611E57
:401580008C411443052801DD421F9440144A2240610704D00F210C40042C00D0043251010AD59F23181AFF2816D09401640AC3B2D6E700230024D3E7D208FF2B03D0540284
:4015C000640ADBB2CCE7002A06D08024E40314436402640AFF23C3E7FF230024C0E7C046FFFFFFFB1C2101231B04984201D3000C10391B0A984201D3000A08391B09984231
:4016000001D30009043902A2105C40187047C04604030202010101010000000000000000014B18687047C0464401002070B50E4B0E4D0024ED1AAD101E1CAC4204D0A3000E
:40164000F35898470134F8E700F0AAFD084B094D0024ED1AAD101E1CAC4204D0A300F35898470134F8E770BDAC210000AC210000AC210000B4210000031C8218934202D05E
:4016800019700133FAE7704738B5104B051C1C68A36B002B15D1182000F05EFB0C4BA06303800C4B43800C4B83800C4BC3800C4B0381052343810B238381012200230261BB
:4016C0004361A36B00221D615A6138BD440100200E330000CDABFFFF341200006DE6FFFFECDEFFFF00000000174B10B51C68A36B002B15D1182000F02FFB144BA06303806C
:40170000134B4380134B8380134BC380134B0381052343810B2383810122002302614361084B074AA46B2069616900F031FC0122002380185941206161614800400810BDFE
:401740002D7F954C2DF45158440100200E330000CDABFFFF341200006DE6FFFFECDEFFFF0EB400B59CB01DAB04CB822202A992008A810A4A02908A604A6101225242CA81D4
:40178000074A086110681D9A019300F06BF8029A002313701CB008BC03B01847FFFFFF7F44010020F0B58D6885B0071C0C1C03920193AB4245D390228B89D20013423DD052
:4017C00062690326564309692068F20F401A96190290021C0198013212187610964200D2161C381C5A050FD5311C00F035FB051E13D0029A216900F0C4FAA289184B134091
:4018000080221343A38111E0321C00F079FB051E0CD1381C216900F0D7FA0C233B60A389402213430120A381404217E0029B2561ED1825606661019DF61AA6600198A84233
:4018400000D2019D2A1C2068039900F0A3FAA2680020531BA36023685D19256005B0F0BD7FFBFFFFF0B59FB0039005938B890E1C171C19060FD53269002A0CD1402100F080
:40188000EBFA30603061002803D103990C230B60C9E04023736106AD00236B6120236B763023AB763C1C2378002B03D1E21B029211D003E0252BF9D00134F4E70398311C7E
:4018C0003A1C029BFFF76EFF013000D1A6E06969029A8B186B612378002B00D19EE0012252426A606A4600235B3201342B60EB60AB601370AB654E4F2178381C052200F0ED
:4019000035FA002807D0C71B2B680120B840184328600134EFE72B68D90603D56A4620215B3211701A0703D56A462B215B32117022782A2A01D0099B0EE0059A111D126819
:401940000591002A01DB099204E05242EA60022213432B60013409E02278303A092A04D80A214B4301349B18F6E7099323782E2B18D163782A2B09D1059B02341A1D1B68A7
:401980000592002B0DDA01235B420AE0013400232278303A092A04D80A214B4301349B18F6E70793234F2178381C032200F0DEF9002806D0C71B2B684020B8401843286057
:4019C000013421781C480622671C297600F0CEF9002812D0194B002B06D1059B0722073393430833059314E005AB00930398291C321C134B00E000BF07E005AB0093039871
:401A0000291C321C0E4B00F091F804900499013104D06A69049953186B6143E7B3895A0601D40B9801E0012040421FB0F0BDC0466A2100007021000074210000000000006E
:401A4000A5170000F7B5151C01930A698B68061C0C1C934200DA131C221C2B6043321278002A01D001332B602068800602D52B6802332B60216806270F401FD0231C433348
:401A80001B785A1E9341226892061FD5E11840313020C870211C5A1C45310978A21840320233D17012E0221C301C019919320123089FB847013011D0009F01370097E06800
:401AC0002968009F431A9F42EDDBD7E7221C301C01994332089FB847013002D10120404223E0206806212B68E26801400025042903D1D51AEB43DB171D40A26823699A4238
:401B000001DDD31AED1800270097009FAF420BDA221C301C01991A320123089FB8470130DCD0009F0137EFE70020FEBDF0B50D1C8BB0433506920590079304950B7E0C1C71
:401B4000109A6E2B00D1A7E011D8632B22D009D8002B00D1B0E0582B00D0C0E045310B707B4D4EE0642B1CD0692B1AD0B7E0732B00D1A5E009D86F2B29D0702B00D0AEE029
:401B80000E68202333430B6036E0752B1FD0782B32D0A4E013680D1C191D423511601B689FE0216813680E0603D5191D11601E6805E04806F9D5191D116000215E5E644BA8
:401BC000002E3BDA049D2D2276422A7036E0216813680E0603D5191D11601E6804E04806F9D5191D1E881160594B227E039308276F2A1ED00A271CE0231C78214533554D31
:401C0000197011682368081D039510601E0601D50E6802E05806FBD50E88D90702D52022134323601027002E03D1226820239A432260231C002243331A7001E003930A2794
:401C40006368A360002B03DB2568042295432560002E02D1049D002B0ED0049D301C391CFEF7DCFF0398013D435C301C2B70391CFEF790FF061EF1D1082F09D12168C90738
:401C800006D5626823699A4202DC013D30232B70049E731B23612AE0086813684969050604D5181D10601B68196005E04606F8D5181D10601B68198000232361049D16E030
:401CC0001368191D11601D68281C00F051F963682061984200D923612069606004E0251C42352B7001232361049E00233370079E05980096211C09AA069BFFF7A3FE01307B
:401D000002D10120404221E02A1C059806992369079DA8470130F4D02668B60705D4099BE068984212DA181C10E00025E0680999431A9D42F3DA221C05980699193201239B
:401D4000079EB0470130DCD00135EFE70BB0F0BD7B2100008C21000008B5034B011C186800F07AF808BDC04644010020C9B28218904204D003788B4202D00130F8E70020EE
:401D8000704710B50023934203D0CC5CC4540133F9E710BD70B5814201D300230CE08C18A042FAD28518131C013B0BD351426618F65C6918CE54F7E7934203D0CC5CC454EC
:401DC0000133F9E770BD000030B5002940D004390B68002B00DAC9181E4A1368141C002B02D14B60116033E099420FD208680A189A4205D113685268C01808604A6000E0AF
:401E00004B60216024E08A4203D8131C5A68002AF9D11D685C198C420BD10968691858181960904214D114685268091919605A600EE08C4202D90C23036009E008680C187F
:401E4000944203D114685268001908604A60596030BDC0468801002070B50323CD1C9D430835061C0C2D01D20C2501E0002D3FDB8D423DD3204B1C681A1C211C002913D0DD
:401E80000868431B0DD40B2B02D90B60CC181EE08C4202D1636813601AE0486860600C1C16E00C1C4968E9E7144C2068002803D1301C00F04BF82060301C291C00F046F863
:401EC000431C15D0C41C03239C4384420AD12560201C0B300722231D9043C31A0BD05A42E25008E0211A301C00F030F80130EED10C233360002070BD880100208401002086
:401F0000F8B5061C0C1C151C002904D1111CFFF7A3FF041C18E0002A03D1FFF755FF2C1C12E000F02CF8A8420ED2301C291CFFF793FF071E07D0211C2A1CFFF722FF301C43
:401F4000211CFFF741FF3C1C201CF8BD38B5074C0023051C081C2360FEF76EFA431C03D12368002B00D02B6038BDC046A40100200023C25C0133002AFBD1581E7047043944
:401F80000B68181F002B02DAC8581B18181F70479C460304F0B51B0C17043F0C150C1E1C041C000C7E436B4347434543FB18300C1818874202D980235B02ED18030CED18D0
:401FC00063465C434A433604360CA118000480194919F0BD0000000025640000497420746F6F6B2000000000206D7320000000000A200D0000300F40000400400F4000047B
:4020000001000F4028300F4008310F401F320F4014330F4002400F4003410F4002600F40820D405149FF4AFF4BFF4F0150185A045D095F01604062406440654066806880E6
:402040006A806C806E80C041C9FFCAFFCBFFCD83CE03CF01D018D280DA04DB04DD99DF01E040E240E440E540E680E880EA80EC80EE80420246824801740176807780D09846
:40208000D2080E012E0130013E01404145EC4720482349FF4AFF4BFF4D834E034F0150185401560458045A045B045D995F016040624064406540668068806A806C806E8025
:4020C000060217801E8046824D044F0156025D045E805F01678087409A809B809E02C080C480D090D6D0D8806F02DA808702A702E210020111010000030405060708090AA6
:402100000B0C0E0F101112131415161718191B1C1D1E1F2021222325262728292A2B2E2F3031323334350000341000002E1000002E10000024100000840F0000840F0000C9
:402140001A10000024100000840F00001A100000840F000024100000820F0000820F0000820F0000BC1000004300232D302B2000686C4C00656667454647003031323334D2
:402180003536373839414243444546003031323334353637383961626364656600000000F8B5C046F8BC08BC9E46704789010000B1040000F8B5C046F8BC08BC9E4670474A
:4021C00061010000D8210000C800002080000000600000000000000000000000A80100200000E02EC05D00001800000000366E0104040400000000000000000000000000FF
:402200000000000000000000000000000000000000000000682100000000000000000000000000000000000000000000000000000000000000000000000000000000000015
:402240000000000000000000000000000000000000000000E4000020000000000000000000000000000000000000000000000000000000000000000000000000000000005A
:40228000000000000000000000000000000000000000000000000000000000000000000000000000000000000000000000000000000000000000000000000000000000001E
:4022C00000000000000000000000000000000000000000000000000000000000000000000000000000000000000000000000000000000000000000000000000000000000DE
:40230000000000000000000000000000000000000000000000000000000000000000000000000000000000000000000000000000000000000000000000000000000000009D
:40234000000000000000000000000000000000000000000000000000000000000000000000000000000000000000000000000000000000000000000000000000000000005D
:0200000490303A
:020000009BA5BE
:0200000490402A
:200000000000000000000000000000000000000000000000000000000000000000000000E0
:0200000490501A
:0C000000000204C81193110104D3AD38B4
:0200000490600A
:0100000001FE
:00000001FF