:400000000010002011000000C9010000C901000008B500F0DBF8C04610B5124C22688023DB0213432360182000F000FA22680E4B134023600D4A0E4B1A6010220D4B1A6056
:40004000802212060C4B1A600C4A0D4B1A6009200C4900F0B9F9092000F0AAF900220A4B1A6010BD00010B40FFFFFBFF0600008004010B402002024008010B4001000080E0
:4000800000000240410600000C020B4038B572B60024214D0CE063001B195B00EB1899881A8858880004104300F0F6F80134E4B2012CF0D91849081C0C301C3100F0D0F877
:4000C000C0229200154B1A60EE221202144B1A6099231B04134A1360134A1360134B197802220A431A70124A11783C208143142001431170197816220A431A7004220D4B34
:400100001A60C02252000C4B1A60D82212010B4B1A60FFF781FF38BD44070000000001400C00014000500F4030500F4000700F4001700F4000000440080004400803044053
:4001400010B5064C2378002B07D1054B002B02D0044800E000BF0123237010BDE0000020000000004007000008B5084B002B03D00748084900E000BF07480368002B03D0C2
:40018000064B002B00D0984708BDC0460000000040070000E4000020C80000200000000070B562B600F0E0F8064D00260134A4B2AC4200D9341C201C00F084F8012000F03D
:4001C00013F9F3E7E7030000FEE7C046F8B50F4F0F4E002412E031687368B568221C02E001C901C30432AA42FAD1F168221C01E010C304328A42FBD11036013F002FEAD111
:4002000000F070FAFFF7CCFFFEE7C04601000000C807000038B500230D4C0E4D0E4808E0032B02D89A00515900E0211C9A00115001332F2BF4D9FFF729FF0022074B1A601B
:400240008023DB05196801220A431A6038BDC046C90100000000000000000020C0000020F0B500220027FF239C4611E0BB00C658F3B26446A64308E054000C192578AD1913
:4002800064782C700132013BDBB2002BF4D10137032FEBD9F0BDC04608B50A1C002100F047FA08BD0004000C014B18607047C046080105400004000C014B18607047C0468F
:4002C000140105400004000C014B18607047C0460C01054038B5051C0C1C00F05FF8A540024B1D6000F05EF838BDC0460800054008B500F053F8064B196801220A431A6053
:4003000000F050F801201821FFF7E4FF08BDC04600000540014B18607047C0463801054010B50E4C8023DB042360236823600020FFF7B8FF236823600C22094B1A60012019
:40034000FFF7E8FF3122074B1A60FA208000FFF7B1FF0020FFF7B6FF10BDC04600010540240105402801054008B5064B1B78002B04D1FFF7D5FF0122024B1A70FFF7B8FF73
:4003800008BDC046FC0000200230800804D0C0460138FDD1C046C046C0467047EFF3108072B6704780F310887047C046C046C0461F23184001238340181C014B186070479D
:4003C00000E100E001BE704738B5041C0D1C1F2802D90020FFF7F6FFA400024BE4182068256038BD4000002070B5041C80252D02074E04E03068FFF7C7FF064BE418AC4233
:40040000F8D8034B58686043FFF7BEFF70BDC046CC0000200080FFFF08B5034B1B7A5843FFF7B2FF08BDC046CC000020F0B557464E464546E0B4041CFFF7B0FF8046E51ECF
:400440002D2D73D83F4B1B78DBB2A34208D33E4B1B78DBB29A463D4B1B78DBB2994631E03B4B1B78DBB2A34208D33A4B1B78DBB29A46394B1B78DBB2994623E0374B1B78C6
:40048000DBB2A34208D3364B1B78DBB29A46354B1B78DBB2994615E0334B1B78DBB2A34208D3324B1B78DBB29A46314B1B78DBB2994607E02F4B1B78DBB29A462E4B1B7837
:4004C000DBB299462D4B5E5D2F2E09D92A2C07D919222B4B1A600520FFF756FF192703E0274B1F683F231F40BE4206D2234B5A5D234B1A600520FFF747FF1F4AA41822786B
:40050000D2B2204B1A60204B52461A601F4B4A461A600520FFF780FFBE420AD9174B5A5D174B1A600520FFF72FFF02E00020FFF749FF4046FFF736FF1CBC90469946A24640
:40054000F0BDC046C0F1FF0FC1F1FF0FC2F1FF0FC3F1FF0FC4F1FF0FC5F1FF0FC6F1FF0FC7F1FF0FC8F1FF0FC9F1FF0FCAF1FF0FCBF1FF0FCCF1FF0FCDF1FF0F7407000080
:400580002CFF0B4028FF0B401CFF0B4020FF0B40044B1A68C0231B021A4201D0012000E00020704700010B4008B5FFF7F7FE044B1968C02212020A431A60FFF7F3FE08BD80
:4005C00000010B4010B5FFF7E9FE084B1968084A11408024E4012143196019680A40802109020A431A60FFF7DDFE10BD00010B40FF3FFFFF38B5051CFFF7D0FE041CFFF7E4
:40060000C7FF002803D0FFF7DDFF012200E00022084B1D40084B1868084901400D431D601B68012A01D1FFF7BFFF201CFFF7BAFE38BDC0460404040010020B40FBFBFBFFAE
:4006400010B5244B1B685A0715D5234B1B685A070ED5224B9C69042214401F490868A0430860996991439961DB68002B00D098470420FFF7BFFF174B1B685A0518D5164BDD
:400680001B685A0510D5154B9A698020C0001040114A1168814311609969114A0A409A611B69002B00D098478020C000FFF7A2FF084B1B685A030CD5074B1B685A0304D541
:4006C000064B5B69002B00D098478020C002FFF791FF10BD10020B40DC00002000010020FFFBFFFF70B50E4B0E4D0024ED1AAD101E1CAC4204D0A300F35898470134F8E746
:4007000000F050F8084B094D0024ED1AAD101E1CAC4204D0A300F35898470134F8E770BDB0070000B0070000B0070000B8070000031C8218934202D019700133FAE770474D
:400740000000000000300F40000400400F40000401330F4002400F4002410F4004430F40E2805304D4208B04970819088908C608E2010000030405060708090A0B0C0E0F81
:40078000101112131415161718191B1C1D1E1F2021222325262728292A2B2E2F3031323334350000F8B5C046F8BC08BC9E4670476901000015020000F8B5C046F8BC08BC3F
:4007C0009E46704741010000D8070000C80000201800000040000000000000000000E02EC05D00001800000000366E01040404000000000000000000000000000000000009
:4008000000000000000000000000000000000000000000000000000000000000000000000000000000000000000000000000000000000000000000000000000000000000B8
:400840000000000000000000000000000000000000000000000000000000000000000000000000000000000000000000000000000000000000000000000000000000000078
:400880000000000000000000000000000000000000000000000000000000000000000000000000000000000000000000000000000000000000000000000000000000000038
:4008C00000000000000000000000000000000000000000000000000000000000000000000000000000000000000000000000000000000000000000000000000000000000F8
:0200000490303A
:02000000B85DE9
:0200000490402A
:200000000000000000000000000000000000000000000000000000000000000000000000E0
:0200000490501A
:0C000000000204C81193110104CAC9F0E9
:0200000490600A
:0100000001FE
:00000001FF