:400000000010002011000000C9030000C903000008B500F0F3F9C04610B5124C22688023DB0213432360182000F016FB22680E4B134023600D4A0E4B1A6010220D4B1A6022
:40004000802212060C4B1A600C4A0D4B1A6009200C4900F0E7FA092000F0D8FA00220A4B1A6010BD00010B40FFFFFBFF0600008004010B400C02024008010B40CF000080C8
:40008000000002406D0800000C020B4038B572B600241E4D0CE063001B195B00EB1899881A8858880004104300F0F2F90134E4B2012CF0D999231B04154A1360EE2109024E
:4000C000144A1160144A1360144A1360144B197802220A431A70134A11783C208143142001431170197816220A431A7020230E4A1360C42189020D4A11600D4A1360D822FB
:4001000012010C4B1A60FFF787FF38BDA4140000000001400C00014000500F4030500F4000700F4001700F400000044008000440180004400803044010B5064C2378002B1F
:4001400007D1054B002B02D0044800E000BF0123237010BD48010020000000005C12000008B5084B002B03D00748084900E000BF07480368002B03D0064B002B00D09847E4
:4001800008BDC046000000005C1200004C010020C80000200000000010B502780B789A4204D00A4800F026FA00200DE00130013103785A4253410A78544262411A42ECD0EF
:4001C000034800F017FA012010BDC046601200008012000038B5051C00F0F6F9041EFBD000F08EF90D2C02D100232B7002E02C700135F1E738BDC04670B5061C00F0E4F905
:40020000041EFBD000F07CF90D2C02D10023336002E0303C10C6F1E770BDC04600B585B0021C01A8034900F00BFC01A800F0E2F905B000BD9C12000038B5051C041C22782B
:400240000B789A4207D1094800F0D4F9601BFFF7E5FF012008E001342378002BEFD1044800F0C8F90120404238BDC046A0120000E4120000F0B5474680B4071C0D1C041C0B
:400280000026B0461AE02A78934216D1E61B11E02278934204D0134800F0ACF946460CE0013401352B785A425341227851424A41134302D12B78002BEAD101342378002B8A
:4002C000E1D1002E06D0084800F094F9301CFFF7A5FF02E0054800F08DF9301C04BC9046F0BDC04614130000441300008013000010B58CB062B600F0E5F852E02C4800F0CE
:4003000079F901A8FFF778FF019BDA1C4CD0022B14D0032B2AD0012B40D1264800F06AF907A8FFF757FF244800F064F902A8FFF751FF07A802A9FFF72FFF32E01D4800F0C7
:4003400059F907A8FFF746FF1B4800F053F96846FFF740FF07A86946FFF76EFFC4B2174800F048F960B2FFF759FF1AE0114800F041F907A8FFF72EFF0F4800F03BF902A824
:40038000FFF728FF07A802A9FFF774FFC4B20B4800F030F960B2FFF741FF02E0084800F029F9019B002BA9D1064800F023F9FEE7AC130000201400003814000054140000C8
:4003C0006414000084140000FEE7C04608B5094B1B681818084A821A802A02DC054A106005E000F0F9FA0C23036001235B42181C08BDC046CC00002090010020F8B50F4F47
:400400000F4E002412E031687368B568221C02E001C901C30432AA42FAD1F168221C01E010C304328A42FBD11036013F002FEAD100F0D8FAFFF75CFFFEE7C0460100000095
:400440003C15000038B500230D4C0E4D0E4808E0032B02D89A00515900E0211C9A00115001332F2BF4D9FFF711FE0022074B1A608023DB05196801220A431A6038BDC0468E
:40048000C90300000000000000000020C000002008B50A1C002100F0CBFA08BD08B500F085F808BD08B500F039F808BD08B5044B1968802212060A431A60FFF7EFFF08BDA9
:4004C0000000074008B5064B1B78002B04D1FFF7E9FF0122024B1A70FFF7E8FF08BDC04664010020014B18687047C04640030740024B1B680F2018407047C0460803074096
:4005000004490F220B681340082BFBD0024B18607047C046080207404002074010B5124A124B1A600023124A13600121114A1160114A12480260072411480460114803608A
:400540001148016011490A60114A1360114A1360114A1360114A1360114A1360114A1360114A136010BDC0460B00000200000740400007404800074007000080000307404D
:400580000403074010030740440007400002074004020740880E0740C80E0740480F0740080F0740C80F0740880F0740044B1968044A0A40902109040A431A607047C046D6
:4005C00000000140FFFF0FFF08B5FFF791FF002802D0FFF787FF00E00020054B1A68D8239B001A4203D01A1C014B1A60002008BDC00F074038B5051C002402E0FFF780FFDE
:400600000134285D0028F9D138BDC0461F23184001238340181C014B1860704700E100E001BE704738B5041C0D1C1F2802D90020FFF7F6FFA400024BE4182068256038BD5A
:400640004000002008B5034B1B7A584300F060F908BDC046D0000020F0B557464E464546E0B4041C00F05EF98046E51E2D2D73D83F4B1B78DBB2A34208D33E4B1B78DBB2FE
:400680009A463D4B1B78DBB2994631E03B4B1B78DBB2A34208D33A4B1B78DBB29A46394B1B78DBB2994623E0374B1B78DBB2A34208D3364B1B78DBB29A46354B1B78DBB2CE
:4006C000994615E0334B1B78DBB2A34208D3324B1B78DBB29A46314B1B78DBB2994607E02F4B1B78DBB29A462E4B1B78DBB299462D4B5E5D2F2E09D92A2C07D919222B4B9E
:400700001A60052000F004F9192703E0274B1F683F231F40BE4206D2234B5A5D234B1A60052000F0F5F81F4AA4182278D2B2204B1A60204B52461A601F4B4A461A6005202B
:40074000FFF780FFBE420AD9174B5A5D174B1A60052000F0DDF802E00020FFF761FF404600F0E4F81CBC90469946A246F0BDC046C0F1FF0FC1F1FF0FC2F1FF0FC3F1FF0F6E
:40078000C4F1FF0FC5F1FF0FC6F1FF0FC7F1FF0FC8F1FF0FC9F1FF0FCAF1FF0FCBF1FF0FCCF1FF0FCDF1FF0FB01400002CFF0B4028FF0B401CFF0B4020FF0B40044B1A6821
:4007C000C0231B021A4201D0012000E00020704700010B4008B500F0A5F8044B1968C02212020A431A6000F0A1F808BD00010B4010B500F097F8084B1968084A11408024D8
:40080000E4012143196019680A40802109020A431A6000F08BF810BD00010B40FF3FFFFF38B5051C00F07EF8041CFFF7C7FF002803D0FFF7DDFF012200E00022084B1D40FE
:40084000084B1868084901400D431D601B68012A01D1FFF7BFFF201C00F068F838BDC0460404040010020B40FBFBFBFF10B5244B1B685A0715D5234B1B685A070ED5224B8E
:400880009C69042214401F490868A0430860996991439961DB68002B00D098470420FFF7BFFF174B1B685A0518D5164B1B685A0510D5154B9A698020C0001040114A116891
:4008C000814311609969114A0A409A611B69002B00D098478020C000FFF7A2FF084B1B685A030CD5074B1B685A0304D5064B5B69002B00D098478020C002FFF791FF10BD09
:4009000010020B40E000002068010020FFFBFFFF0230800804D0C0460138FDD1C046C046C0467047EFF3108072B6704780F310887047C046C046C046002934D001230022DD
:4009400010B488422CD301242407A14204D2814202D209011B01F8E7E400A14204D2814202D249005B00F8E7884201D3401A1A434C08A04202D3001B5C0822438C08A042D4
:4009800002D3001B9C082243CC08A04202D3001BDC082243002803D01B0901D00909E3E7101C10BC7047002801D00020C04307B4024802A14018029003BDC0461900000047
:4009C0000029F0D003B5FFF7B9FF0EBC4243891A1847C0467047C046014B18687047C0464401002070B50E4B0E4D0024ED1AAD101E1CAC4204D0A300F35898470134F8E708
:400A000000F08AFD084B094D0024ED1AAD101E1CAC4204D0A300F35898470134F8E770BD2415000024150000241500002C150000031C8218934202D019700133FAE7704703
:400A40000EB400B59CB01DAB04CB822202A992008A810A4A02908A604A6101225242CA81074A086110681D9A019300F06BF8029A002313701CB008BC03B01847FFFFFF7F83
:400A800044010020F0B58D6885B0071C0C1C03920193AB4245D390228B89D20013423DD062690326564309692068F20F401A96190290021C0198013212187610964200D228
:400AC000161C381C5A050FD5311C00F02BFB051E13D0029A216900F0BAFAA289184B134080221343A38111E0321C00F06FFB051E0CD1381C216900F0CDFA0C233B60A389D9
:400B0000402213430120A381404217E0029B2561ED1825606661019DF61AA6600198A84200D2019D2A1C2068039900F099FAA2680020531BA36023685D19256005B0F0BDB4
:400B40007FFBFFFFF0B59FB0039005938B890E1C171C19060FD53269002A0CD1402100F0E1FA30603061002803D103990C230B60C9E04023736106AD00236B6120236B76A3
:400B80003023AB763C1C2378002B03D1E21B029211D003E0252BF9D00134F4E70398311C3A1C029BFFF76EFF013000D1A6E06969029A8B186B612378002B00D19EE0012276
:400BC00052426A606A4600235B3201342B60EB60AB601370AB654E4F2178381C052200F02BFA002807D0C71B2B680120B840184328600134EFE72B68D90603D56A46202112
:400C00005B3211701A0703D56A462B215B32117022782A2A01D0099B0EE0059A111D12680591002A01DB099204E05242EA60022213432B60013409E02278303A092A04D8DC
:400C40000A214B4301349B18F6E7099323782E2B18D163782A2B09D1059B02341A1D1B680592002B0DDA01235B420AE0013400232278303A092A04D80A214B4301349B1883
:400C8000F6E70793234F2178381C032200F0D4F9002806D0C71B2B684020B84018432860013421781C480622671C297600F0C4F9002812D0194B002B06D1059B0722073332
:400CC00093430833059314E005AB00930398291C321C134B00E000BF07E005AB00930398291C321C0E4B00F091F804900499013104D06A69049953186B6143E7B3895A061B
:400D000001D40B9801E0012040421FB0F0BDC046E2140000E8140000EC14000000000000850A0000F7B5151C01930A698B68061C0C1C934200DA131C221C2B6043321278ED
:400D4000002A01D001332B602068800602D52B6802332B60216806270F401FD0231C43331B785A1E9341226892061FD5E11840313020C870211C5A1C45310978A21840321B
:400D80000233D17012E0221C301C019919320123089FB847013011D0009F01370097E0682968009F431A9F42EDDBD7E7221C301C01994332089FB847013002D101204042F0
:400DC00023E0206806212B68E26801400025042903D1D51AEB43DB171D40A26823699A4201DDD31AED1800270097009FAF420BDA221C301C01991A320123089FB8470130B1
:400E0000DCD0009F0137EFE70020FEBDF0B50D1C8BB0433506920590079304950B7E0C1C109A6E2B00D1A7E011D8632B22D009D8002B00D1B0E0582B00D0C0E045310B7097
:400E40007B4D4EE0642B1CD0692B1AD0B7E0732B00D1A5E009D86F2B29D0702B00D0AEE00E68202333430B6036E0752B1FD0782B32D0A4E013680D1C191D423511601B68DE
:400E80009FE0216813680E0603D5191D11601E6805E04806F9D5191D116000215E5E644B002E3BDA049D2D2276422A7036E0216813680E0603D5191D11601E6804E0480678
:400EC000F9D5191D1E881160594B227E039308276F2A1ED00A271CE0231C78214533554D197011682368081D039510601E0601D50E6802E05806FBD50E88D90702D520225F
:400F0000134323601027002E03D1226820239A432260231C002243331A7001E003930A276368A360002B03DB2568042295432560002E02D1049D002B0ED0049D301C391C96
:400F4000FFF73EFD0398013D435C301C2B70391CFFF7F2FC061EF1D1082F09D12168C90706D5626823699A4202DC013D30232B70049E731B23612AE00868136849690506DB
:400F800004D5181D10601B68196005E04606F8D5181D10601B68198000232361049D16E01368191D11601D68281C00F047F963682061984200D923612069606004E0251CAE
:400FC00042352B7001232361049E00233370079E05980096211C09AA069BFFF7A3FE013002D10120404221E02A1C059806992369079DA8470130F4D02668B60705D4099BC9
:40100000E068984212DA181C10E00025E0680999431A9D42F3DA221C0598069919320123079EB0470130DCD00135EFE70BB0F0BDF314000004150000C9B28218904204D0B5
:4010400003788B4202D00130F8E70020704710B50023934203D0CC5CC4540133F9E710BD70B5814201D300230CE08C18A042FAD28518131C013B0BD351426618F65C6918D7
:40108000CE54F7E7934203D0CC5CC4540133F9E770BD000030B5002940D004390B68002B00DAC9181E4A1368141C002B02D14B60116033E099420FD208680A189A4205D113
:4010C00013685268C01808604A6000E04B60216024E08A4203D8131C5A68002AF9D11D685C198C420BD10968691858181960904214D114685268091919605A600EE08C42B8
:4011000002D90C23036009E008680C18944203D114685268001908604A60596030BDC0468801002070B50323CD1C9D430835061C0C2D01D20C2501E0002D3FDB8D423DD3AE
:40114000204B1C681A1C211C002913D00868431B0DD40B2B02D90B60CC181EE08C4202D1636813601AE0486860600C1C16E00C1C4968E9E7144C2068002803D1301C00F0C4
:401180004BF82060301C291C00F046F8431C15D0C41C03239C4384420AD12560201C0B300722231D9043C31A0BD05A42E25008E0211A301C00F030F80130EED10C233360EC
:4011C000002070BD8801002084010020F8B5061C0C1C151C002904D1111CFFF7A3FF041C18E0002A03D1FFF755FF2C1C12E000F02CF8A8420ED2301C291CFFF793FF071EB3
:4012000007D0211C2A1CFFF722FF301C211CFFF741FF3C1C201CF8BD38B5074C0023051C081C2360FFF7D2F8431C03D12368002B00D02B6038BDC0468C0100200023C25C1D
:401240000133002AFBD1581E704704390B68181F002B02DAC8581B18181F7047000000000A200D20596F757220737472696E677320646F206E6F74206D617463682E2000D9
:401280000A200D20596F757220737472696E6773206D617463682E2000000000256400000A200D20596F757220737472696E67206669727374206861732074686520737035
:4012C000656369666965642063686172616374657220617420706F736974696F6E203D20000000000A200D20596F757220737472696E6720646F65736E27742068617665FC
:401300002074686174206368617261637465722E200000000A200D20537472696E672032206973206E6F7420612066756C6C20737562736574206F6620537472696E67207E
:40134000312E20000A200D20537472696E672032206973206120737562736574206F6620537472696E6720312C207374617274696E6720617420706F736974696F6E20005C
:401380000A200D20537472696E672032206973206E6F74206120737562736574206F6620537472696E672031200000000A200D2046756E6374696F6E20746F206578656307
:4013C00075746520283120666F7220737472696E672020636F6D706172652C2032206F6620636861726163746572207365617263682C203320666F72207375622D73747235
:40140000696E672002207365617263682C206F72202D3120746F2065786974293A2000000A200D20456E74657220666972737420737472696E672E000A200D20456E746546
:4014400072207365636F6E6420737472696E672E000000000A200D205374617475732069733A20000A200D204572726F6E656F757320656E7472792E205472792061676107
:40148000696E2E000A200D20416C6C20646F6E652E2049646C696E6720746865204350552E00000000300F40000400400F400004030405060708090A0B0C0E0F10111213F1
:4014C0001415161718191B1C1D1E1F2021222325262728292A2B2E2F30313233343500004300232D302B2000686C4C006566674546470030313233343536373839414243A5
:40150000444546003031323334353637383961626364656600000000F8B5C046F8BC08BC9E4670476101000045040000F8B5C046F8BC08BC9E4670473901000050150000A4
:40154000C800002080000000480000000000000000000000900100200000E02EC05D00001800000000366E0104040400000000000000000000000000000000000000000016
:40158000000000000000000000000000E014000000000000000000000000000000000000000000000000000000000000000000000000000000000000000000000000000037
:4015C000000000000000000000000000E4000020000000000000000000000000000000000000000000000000000000000000000000000000000000000000000000000000E7
:4016000000000000000000000000000000000000000000000000000000000000000000000000000000000000000000000000000000000000000000000000000000000000AA
:40164000000000000000000000000000000000000000000000000000000000000000000000000000000000000000000000000000000000000000000000000000000000006A
:40168000000000000000000000000000000000000000000000000000000000000000000000000000000000000000000000000000000000000000000000000000000000002A
:4016C00000000000000000000000000000000000000000000000000000000000000000000000000000000000000000000000000000000000000000000000000000000000EA
:0200000490303A
:0200000017FAED
:0200000490402A
:200000000000000000000000000000000000000000000000000000000000000000000000E0
:0200000490501A
:0C000000000204C81193110104CF298DE7
:0200000490600A
:0100000001FE
:00000001FF