:4000000000100020110000006D0300006D03000008B500F0C5F9C04610B5124C22688023DB0213432360182000F0F8FB22680E4B134023600D4A0E4B1A6010220D4B1A6026
:40004000802212060C4B1A600C4A0D4B1A6009200C4900F0B1FB092000F0A2FB00220A4B1A6010BD00010B40FFFFFBFF0600008004010B400C02024008010B40CF00008032
:4000800000000240550A00000C020B4038B572B60122254B1A700024244D0CE063001B195B00EB1899881A8858880004104300F0DDF90134E4B2012CF0D91C49081C0C3058
:4000C0002C3100F0B7F999231B04194A1360EE210902184A1160184A1360184A13600122174B1A600222174B1A60174B19780A431A70164A11783C208143142001431170F0
:40010000197816220A431A702023114A1360C4218902104A1160104A1360D82212010F4B1A60FFF779FF38BD1C700F40F8140000000001400C00014000500F4030500F40DF
:400140002000004000800F4000700F4001700F400000044008000440180004400803044010B5064C2378002B07D1054B002B02D0044800E000BF0123237010BD50010020B4
:40018000000000001C14000008B5084B002B03D00748084900E000BF07480368002B03D0064B002B00D0984708BDC046000000001C14000054010020C80000200000000087
:4001C00008B5144A136801331360052B06D1124B1A6801321A6000220E4B1A600E4B1B683C2B05D10C4B5A6801325A6000221A60094B5B683C2B03D1074B9A6801329A60AC
:40020000054B9B68182B02D10022034B9A6000F041F908BDA40100206C01002070B582B0061C002500F052FA041EFBD000F0EAF901AB5C550135012DF4DD19783039C9B209
:400240005A78303AD2B28B005B185B009818B04205DB044800F050FA301CFFF7DFFF02B070BDC0462414000010B50D4800F044FA1820FFF7D3FF0B4CA0600B4800F03CFA08
:400280003C20FFF7CBFF6060084800F035FA3C20FFF7C4FF20600122054B1A7010BDC046681400006C01002084140000A0140000CC00002010B500F009FA084C206000F0D1
:4002C000A1F92368632B04D10022054B1A70FFF7CBFF044B1A681A6010BDC046A0010020CC000020C00F0740F0B583B072B6164800F034FA154800F045F962B60022144B39
:400300001A6000F061F9134800F0F6F9FFF7ACFF00F004F9104D114E114F2B78002B0ED0104CA268636824680094301C391C00F067FC0D4800F0E0F9301C00F0DDF9FA20DA
:40034000800000F049FAE8E7B5020000C1010000A4010020BC140000CC000020AC010020E41400006C010020E0140000FEE7C04608B5094B1B681818084A821A802A02DC96
:40038000054A106005E000F007FC0C23036001235B42181C08BDC046D0000020C0010020F8B50F4F0F4E002412E031687368B568221C02E001C901C30432AA42FAD1F16880
:4003C000221C01E010C304328A42FBD11036013F002FEAD100F0E6FBFFF786FFFEE7C046010000008816000038B500230D4C0E4D0E4808E0032B02D89A00515900E0211C8C
:400400009A00115001332F2BF4D9FFF73FFE0022074B1A608023DB05196801220A431A6038BDC0466D0300000000000000000020C0000020F0B500220027FF239C4611E009
:40044000BB00C658F3B26446A64308E054000C192578AD1964782C700132013BDBB2002BF4D10137072FEBD9F0BDC04608B50A1C002100F0BDFB08BD024B197880220A4320
:400480001A70704771000F40014B18707047C04682000F40014B1878C0B2704762000F4008B5011C014800F06BFA08BD20000F4008B5024800F06EFA08BDC04640000F40BE
:4004C00008B5011C014800F05BFA08BD00000F4010B5082401E0FFF7EBFFFFF7DBFF0442F9D110BD10B50B4C201CFFF7D9FF201CFFF7E6FF00F04AF9074B197810220A434F
:400500001A7000F047F9FFF7E3FF0120FFF7BCFF10BDC046FF3D490092000F4008B5064B1B78002B04D1FFF7DDFF0122024B1A70FFF7A2FF08BDC04678010020014B1864EE
:400540007047C0460000002010B5041C00F01EF9054B1968C0229143A2010C1C14431C6000F018F910BDC04600E400E00122014B1A60704700E100E00122014B1A607047F4
:4005800080E100E010B5041CFFF7F6FF201CFFF7D5FF0320FFF7D8FFFFF7E8FF10BDC04608B500F085F808BD08B500F039F808BD08B5044B1968802212060A431A60FFF7EE
:4005C000EFFF08BD0000074008B5064B1B78002B04D1FFF7E9FF0122024B1A70FFF7E8FF08BDC04679010020014B18687047C04640030740024B1B680F2018407047C0461F
:400600000803074004490F220B681340082BFBD0024B18607047C046080207404002074010B5124A124B1A600023124A13600121114A1160114A12480260072411480460F3
:40064000114803601148016011490A60114A1360114A1360114A1360114A1360114A13600421114A1160114A136010BD0B00000200000740400007404800074007000080BD
:40068000000307400403074010030740440007400002074004020740880E0740C80E0740480F0740080F0740C80F0740880F0740044B1968044A0A40902109040A431A6048
:4006C0007047C04600000140FFFF0FFF08B5FFF791FF002802D0FFF787FF00E00020054B1A68D8239B001A4203D01A1C014B1A60002008BDC00F074038B5051C002402E095
:40070000FFF780FF0134285D0028F9D138BDC046014BD8667047C0460000002010B5041C00F034F8044B1A6892009208A40714431C6000F02FF810BD08E400E08022120155
:40074000014B1A607047C04600E100E080221201014B1A607047C04680E100E010B5041CFFF7F4FF201CFFF7D3FF0320FFF7D6FFFFF7E4FF10BDC0460230800804D0C046BC
:400780000138FDD1C046C046C0467047EFF3108072B6704780F310887047C046C046C0461F23184001238340181C014B1860704700E100E001BE704738B5041C0D1C1F2860
:4007C00002D90020FFF7F6FFA400024BE4182068256038BD4000002070B5041C80252D02074E04E03068FFF7C7FF064BE418AC42F8D8034B58686043FFF7BEFF70BDC0467C
:40080000D40000200080FFFF08B5034B1B7A5843FFF7B2FF08BDC046D4000020F0B557464E464546E0B4041CFFF7B0FF8046E51E2D2D73D83F4B1B78DBB2A34208D33E4B8A
:400840001B78DBB29A463D4B1B78DBB2994631E03B4B1B78DBB2A34208D33A4B1B78DBB29A46394B1B78DBB2994623E0374B1B78DBB2A34208D3364B1B78DBB29A46354B0C
:400880001B78DBB2994615E0334B1B78DBB2A34208D3324B1B78DBB29A46314B1B78DBB2994607E02F4B1B78DBB29A462E4B1B78DBB299462D4B5E5D2F2E09D92A2C07D96D
:4008C00019222B4B1A600520FFF756FF192703E0274B1F683F231F40BE4206D2234B5A5D234B1A600520FFF747FF1F4AA4182278D2B2204B1A60204B52461A601F4B4A469B
:400900001A600520FFF780FFBE420AD9174B5A5D174B1A600520FFF72FFF02E00020FFF749FF4046FFF736FF1CBC90469946A246F0BDC046C0F1FF0FC1F1FF0FC2F1FF0F29
:40094000C3F1FF0FC4F1FF0FC5F1FF0FC6F1FF0FC7F1FF0FC8F1FF0FC9F1FF0FCAF1FF0FCBF1FF0FCCF1FF0FCDF1FF0FFC1500002CFF0B4028FF0B401CFF0B4020FF0B4021
:40098000CBB203700B0ADBB24370090CC9B281707047C046027843781B0213438078000418437047044B1A68C0231B021A4201D0012000E00020704700010B4008B5FFF729
:4009C000E5FE044B1968C02212020A431A60FFF7E1FE08BD00010B4010B5FFF7D7FE084B1968084A11408024E4012143196019680A40802109020A431A60FFF7CBFE10BD6A
:400A000000010B40FF3FFFFF38B5051CFFF7BEFE041CFFF7C7FF002803D0FFF7DDFF012200E00022084B1D40084B1868084901400D431D601B68012A01D1FFF7BFFF201C4E
:400A4000FFF7A8FE38BDC0460404040010020B40FBFBFBFF10B5244B1B685A0715D5234B1B685A070ED5224B9C69042214401F490868A0430860996991439961DB68002B02
:400A800000D098470420FFF7BFFF174B1B685A0518D5164B1B685A0510D5154B9A698020C0001040114A1168814311609969114A0A409A611B69002B00D098478020C000DA
:400AC000FFF7A2FF084B1B685A030CD5074B1B685A0304D5064B5B69002B00D098478020C002FFF791FF10BD10020B40E40000207C010020FFFBFFFF002934D00123002233
:400B000010B488422CD301242407A14204D2814202D209011B01F8E7E400A14204D2814202D249005B00F8E7884201D3401A1A434C08A04202D3001B5C0822438C08A04212
:400B400002D3001B9C082243CC08A04202D3001BDC082243002803D01B0901D00909E3E7101C10BC7047002801D00020C04307B4024802A14018029003BDC0461900000085
:400B80000029F0D003B5FFF7B9FF0EBC4243891A1847C0467047C046014B18687047C0464801002070B50E4B0E4D0024ED1AAD101E1CAC4204D0A300F35898470134F8E742
:400BC00000F050FD084B094D0024ED1AAD101E1CAC4204D0A300F35898470134F8E770BD70160000701600007016000078160000031C8218934202D019700133FAE7704748
:400C00000EB400B59CB01DAB04CB822202A992008A810A4A02908A604A6101225242CA81074A086110681D9A019300F06BF8029A002313701CB008BC03B01847FFFFFF7FC1
:400C400048010020F0B58D6885B0071C0C1C03920193AB4245D390228B89D20013423DD062690326564309692068F20F401A96190290021C0198013212187610964200D262
:400C8000161C381C5A050FD5311C00F02BFB051E13D0029A216900F0BAFAA289184B134080221343A38111E0321C00F06FFB051E0CD1381C216900F0CDFA0C233B60A38917
:400CC000402213430120A381404217E0029B2561ED1825606661019DF61AA6600198A84200D2019D2A1C2068039900F099FAA2680020531BA36023685D19256005B0F0BDF3
:400D00007FFBFFFFF0B59FB0039005938B890E1C171C19060FD53269002A0CD1402100F0E1FA30603061002803D103990C230B60C9E04023736106AD00236B6120236B76E1
:400D40003023AB763C1C2378002B03D1E21B029211D003E0252BF9D00134F4E70398311C3A1C029BFFF76EFF013000D1A6E06969029A8B186B612378002B00D19EE00122B4
:400D800052426A606A4600235B3201342B60EB60AB601370AB654E4F2178381C052200F02BFA002807D0C71B2B680120B840184328600134EFE72B68D90603D56A46202150
:400DC0005B3211701A0703D56A462B215B32117022782A2A01D0099B0EE0059A111D12680591002A01DB099204E05242EA60022213432B60013409E02278303A092A04D81B
:400E00000A214B4301349B18F6E7099323782E2B18D163782A2B09D1059B02341A1D1B680592002B0DDA01235B420AE0013400232278303A092A04D80A214B4301349B18C1
:400E4000F6E70793234F2178381C032200F0D4F9002806D0C71B2B684020B84018432860013421781C480622671C297600F0C4F9002812D0194B002B06D1059B0722073370
:400E800093430833059314E005AB00930398291C321C134B00E000BF07E005AB00930398291C321C0E4B00F091F804900499013104D06A69049953186B6143E7B3895A0659
:400EC00001D40B9801E0012040421FB0F0BDC0462E160000341600003816000000000000450C0000F7B5151C01930A698B68061C0C1C934200DA131C221C2B604332127880
:400F0000002A01D001332B602068800602D52B6802332B60216806270F401FD0231C43331B785A1E9341226892061FD5E11840313020C870211C5A1C45310978A218403259
:400F40000233D17012E0221C301C019919320123089FB847013011D0009F01370097E0682968009F431A9F42EDDBD7E7221C301C01994332089FB847013002D1012040422E
:400F800023E0206806212B68E26801400025042903D1D51AEB43DB171D40A26823699A4201DDD31AED1800270097009FAF420BDA221C301C01991A320123089FB8470130EF
:400FC000DCD0009F0137EFE70020FEBDF0B50D1C8BB0433506920590079304950B7E0C1C109A6E2B00D1A7E011D8632B22D009D8002B00D1B0E0582B00D0C0E045310B70D6
:401000007B4D4EE0642B1CD0692B1AD0B7E0732B00D1A5E009D86F2B29D0702B00D0AEE00E68202333430B6036E0752B1FD0782B32D0A4E013680D1C191D423511601B681C
:401040009FE0216813680E0603D5191D11601E6805E04806F9D5191D116000215E5E644B002E3BDA049D2D2276422A7036E0216813680E0603D5191D11601E6804E04806B6
:40108000F9D5191D1E881160594B227E039308276F2A1ED00A271CE0231C78214533554D197011682368081D039510601E0601D50E6802E05806FBD50E88D90702D520229D
:4010C000134323601027002E03D1226820239A432260231C002243331A7001E003930A276368A360002B03DB2568042295432560002E02D1049D002B0ED0049D301C391CD5
:40110000FFF73EFD0398013D435C301C2B70391CFFF7F2FC061EF1D1082F09D12168C90706D5626823699A4202DC013D30232B70049E731B23612AE0086813684969050619
:4011400004D5181D10601B68196005E04606F8D5181D10601B68198000232361049D16E01368191D11601D68281C00F047F963682061984200D923612069606004E0251CEC
:4011800042352B7001232361049E00233370079E05980096211C09AA069BFFF7A3FE013002D10120404221E02A1C059806992369079DA8470130F4D02668B60705D4099B07
:4011C000E068984212DA181C10E00025E0680999431A9D42F3DA221C0598069919320123079EB0470130DCD00135EFE70BB0F0BD3F16000050160000C9B28218904204D059
:4012000003788B4202D00130F8E70020704710B50023934203D0CC5CC4540133F9E710BD70B5814201D300230CE08C18A042FAD28518131C013B0BD351426618F65C691815
:40124000CE54F7E7934203D0CC5CC4540133F9E770BD000030B5002940D004390B68002B00DAC9181E4A1368141C002B02D14B60116033E099420FD208680A189A4205D151
:4012800013685268C01808604A6000E04B60216024E08A4203D8131C5A68002AF9D11D685C198C420BD10968691858181960904214D114685268091919605A600EE08C42F6
:4012C00002D90C23036009E008680C18944203D114685268001908604A60596030BDC0469C01002070B50323CD1C9D430835061C0C2D01D20C2501E0002D3FDB8D423DD3D9
:40130000204B1C681A1C211C002913D00868431B0DD40B2B02D90B60CC181EE08C4202D1636813601AE0486860600C1C16E00C1C4968E9E7144C2068002803D1301C00F002
:401340004BF82060301C291C00F046F8431C15D0C41C03239C4384420AD12560201C0B300722231D9043C31A0BD05A42E25008E0211A301C00F030F80130EED10C2333602A
:40138000002070BD9C01002098010020F8B5061C0C1C151C002904D1111CFFF7A3FF041C18E0002A03D1FFF755FF2C1C12E000F02CF8A8420ED2301C291CFFF793FF071EC9
:4013C00007D0211C2A1CFFF722FF301C211CFFF741FF3C1C201CF8BD38B5074C0023051C081C2360FEF7C4FF431C03D12368002B00D02B6038BDC046B80100200023C25C38
:401400000133002AFBD1581E704704390B68181F002B02DAC8581B18181F704700000000256400000A200D204572726F72202D20796F75206861766520696E7075742061DD
:401440002076616C7565206F7574736964652074686520626F756E64732E2054727920616761696E3A0000000A200D20456E74657220696E20686F75722076616C75653A7E
:40148000000000000A200D20456E74657220696E206D696E7574652076616C75653A00000A200D20456E74657220696E207365636F6E64732076616C75653A004573746158
:4014C000626C697368656420636F6E6E656374696F6E20746F207465726D696E616C2E200A200D0025303264203A2025303264203A2025303264000000300F400004004045
:401500000F40000401000F4028300F4008310F401F320F4014330F4002400F4003410F4002600F40820D405149FF4AFF4BFF4F0150185A045D095F0160406240644065406C
:40154000668068806A806C806E80C041C9FFCAFFCBFFCD83CE03CF01D018D280DA04DB04DD99DF01E040E240E440E540E680E880EA80EC80EE8042024682480174017680E2
:401580007780D098D2080E012E0130013E01404145EC4720482349FF4AFF4BFF4D834E034F0150185401560458045A045B045D995F016040624064406540668068806A80AB
:4015C0006C806E80060217801E8046824D044F0156025D045E805F01678087409A809B809E02C080C480D090D6D0D8806F02DA808702A702E21002011101000003040506F9
:401600000708090A0B0C0E0F101112131415161718191B1C1D1E1F2021222325262728292A2B2E2F30313233343500004300232D302B2000686C4C0065666745464700306A
:40164000313233343536373839414243444546003031323334353637383961626364656600000000F8B5C046F8BC08BC9E46704789010000E9030000F8B5C046F8BC08BC2F
:401680009E4670476101000098160000C800002088000000700000000000000001000000C00100200000E02EC05D00001800000000366E01040404000000000000000000C9
:4016C0000000000000000000000000000000000000000000000000002C160000000000000000000000000000000000000000000000000000000000000000000000000000A8
:40170000000000000000000000000000000000000000000000000000E8000020000000000000000000000000000000000000000000000000000000000000000000000000A1
:401740000000000000000000000000000000000000000000000000000000000000000000000000000000000000000000000000000000000000000000000000000000000069
:401780000000000000000000000000000000000000000000000000000000000000000000000000000000000000000000000000000000000000000000000000000000000029
:4017C00000000000000000000000000000000000000000000000000000000000000000000000000000000000000000000000000000000000000000000000000000000000E9
:4018000000000000000000000000000000000000000000000000000000000000000000000000000000000000000000000000000000000000000000000000000000000000A8
:0200000490303A
:02000000A47DDD
:0200000490402A
:200000000000000000000000000000000000000000000000000000000000000000000000E0
:0200000490501A
:0C000000000204C81193110104CFB610D7
:0200000490600A
:0100000001FE
:00000001FF