:400000000010002011000000810200008102000008B500F04FF9C04610B5154C22688023DB0213432360182000F074FA2268114B13402360104A114B1A602022104B1A60DC
:400040001022104B1A60802212060F4B1A600F4A0F4B1A600F4A104B1A6009200F4900F027FA092000F018FA00220D4B1A6010BD00010B40FFFFFBFF0600008004010B40F8
:400080000C0202402002024008010B400100008000000240CF00008040000240290700000C020B4038B572B60122264B1A700024254D0CE063001B195B00EB1899881A88AE
:4000C00058880004104300F05BF90134E4B2012CF0D91D49081C0C30303100F035F91B4A1B4B1A60EE2212021A4B1A6099231B04194A1360194A13600122194B1A6002228B
:40010000184B1A60184B19780A431A70174A11783C208143142001431170197816220A431A702822124B1A60C7229202114B1A602022114B1A60D8221201104B1A60FFF710
:400140006BFF38BD1C700F407413000000309900000001400C00014000500F4030500F402000004000800F4000700F4001700F400000044008000440180004400803044010
:4001800010B5064C2378002B07D1054B002B02D0044800E000BF0123237010BD48010020000000006413000008B5084B002B03D00748084900E000BF07480368002B03D0E9
:4001C000064B002B00D0984708BDC04600000000641300004C010020C80000200000000008B5104B1B78002B03D10E4A518801315180002B03D00B4B5A88013A5A80094BC0
:400200005B88094A934202D90121064A1170642B02D80022034B1A70044800F051FB00F069FB08BD64010020E70300006813000000B585B0021C01A8034900F085FC01A8E0
:4002400000F03EFB05B000BD7013000010B50A4800F0C8FB62B600F0FBF800F0CBFA00F08DFB064C6088FFF7E3FF608800F09EF8012000F02DF9F5E7E10100006401002074
:40028000FEE7C04608B5094B1B681818084A821A802A02DC054A106005E000F021FC0C23036001235B42181C08BDC046CC00002098010020F8B50F4F0F4E002412E031685A
:4002C0007368B568221C02E001C901C30432AA42FAD1F168221C01E010C304328A42FBD11036013F002FEAD100F000FCFFF7AEFFFEE7C046010000001815000038B500232A
:400300000D4C0E4D0E4808E0032B02D89A00515900E0211C9A00115001332F2BF4D9FFF7C1FE0022074B1A608023DB05196801220A431A6038BDC0468102000000000000FD
:4003400000000020C0000020F0B500220027FF239C4611E0BB00C658F3B26446A64308E054000C192578AD1964782C700132013BDBB2002BF4D10137082FEBD9F0BDC0467B
:4003800008B50A1C002100F0D7FB08BD0004000C014B18607047C046080105400004000C014B18607047C046140105400004000C014B18607047C0460C01054038B5051CF7
:4003C0000C1C00F05FF8A540024B1D6000F05EF838BDC0460800054008B500F053F8064B196801220A431A6000F050F801201821FFF7E4FF08BDC04600000540014B18605E
:400400007047C0463801054010B50E4C8023DB042360236823600020FFF7B8FF236823600C22094B1A600120FFF7E8FF3122074B1A60FA208000FFF7B1FFE1208000FFF7A4
:40044000B5FF10BD00010540240105402801054008B5064B1B78002B04D1FFF7D5FF0122024B1A70FFF7B8FF08BDC046680100200230800804D0C0460138FDD1C046C046D0
:40048000C0467047EFF3108072B6704780F310887047C046C046C0461F23184001238340181C014B1860704700E100E001BE704738B5041C0D1C1F2802D90020FFF7F6FF90
:4004C000A400024BE4182068256038BD4000002070B5041C80252D02074E04E03068FFF7C7FF064BE418AC42F8D8034B58686043FFF7BEFF70BDC046D00000200080FFFFF7
:4005000008B5034B1B7A5843FFF7B2FF08BDC046D0000020F0B557464E464546E0B4041CFFF7B0FF8046E51E2D2D73D83F4B1B78DBB2A34208D33E4B1B78DBB29A463D4B7B
:400540001B78DBB2994631E03B4B1B78DBB2A34208D33A4B1B78DBB29A46394B1B78DBB2994623E0374B1B78DBB2A34208D3364B1B78DBB29A46354B1B78DBB2994615E0A3
:40058000334B1B78DBB2A34208D3324B1B78DBB29A46314B1B78DBB2994607E02F4B1B78DBB29A462E4B1B78DBB299462D4B5E5D2F2E09D92A2C07D919222B4B1A60052014
:4005C000FFF756FF192703E0274B1F683F231F40BE4206D2234B5A5D234B1A600520FFF747FF1F4AA4182278D2B2204B1A60204B52461A601F4B4A461A600520FFF780FFDA
:40060000BE420AD9174B5A5D174B1A600520FFF72FFF02E00020FFF749FF4046FFF736FF1CBC90469946A246F0BDC046C0F1FF0FC1F1FF0FC2F1FF0FC3F1FF0FC4F1FF0FBB
:40064000C5F1FF0FC6F1FF0FC7F1FF0FC8F1FF0FC9F1FF0FCAF1FF0FCBF1FF0FCCF1FF0FCDF1FF0F8C1400002CFF0B4028FF0B401CFF0B4020FF0B40044B1A68C0231B0249
:400680001A4201D0012000E00020704700010B4008B5FFF7F7FE044B1968C02212020A431A60FFF7F3FE08BD00010B4010B5FFF7E9FE084B1968084A11408024E4012143B6
:4006C000196019680A40802109020A431A60FFF7DDFE10BD00010B40FF3FFFFF38B5051CFFF7D0FE041CFFF7C7FF002803D0FFF7DDFF012200E00022084B1D40084B1868FA
:40070000084901400D431D601B68012A01D1FFF7BFFF201CFFF7BAFE38BDC0460404040010020B40FBFBFBFF10B5244B1B685A0715D5234B1B685A070ED5224B9C69042219
:4007400014401F490868A0430860996991439961DB68002B00D098470420FFF7BFFF174B1B685A0518D5164B1B685A0510D5154B9A698020C0001040114A116881431160C8
:400780009969114A0A409A611B69002B00D098478020C000FFF7A2FF084B1B685A030CD5074B1B685A0304D5064B5B69002B00D098478020C002FFF791FF10BD10020B4022
:4007C000E00000206C010020FFFBFFFF08B500F069F808BD08B500F01DF808BD08B5044B1968802212060A431A60FFF7EFFF08BD0000074008B5064B1B78002B04D1FFF785
:40080000E9FF0122024B1A70FFF7E8FF08BDC0468801002010B5124A124B1A600023124A13600121114A1160114A12480260072411480460114803601148016011490A6074
:40084000114A1360114A1360114A1360114A1360114A1360114A1360114A136010BDC0460B0000020000074040000740480007400700008000030740040307401003074020
:40088000440007400002074004020740880E0740C80E0740480F0740080F0740C80F0740880F0740044B1968044A0A40902109040A431A607047C04600000140FFFF0FFF2E
:4008C00038B5051C002402E000F0ACF80134285D0028F9D138BDC046024B197880220A431A70704771000F40014B18707047C04682000F40014B1878C0B2704762000F40C3
:4009000008B5011C014800F07BF808BD20000F4008B5024800F07EF808BDC04640000F4008B5011C014800F06BF808BD00000F4010B5082401E0FFF7EBFFFFF7DBFF0442E4
:40094000F9D110BD10B50B4C201CFFF7D9FF201CFFF7E6FFFFF796FD074B197810220A431A70FFF793FDFFF7E3FF0120FFF7BCFF10BDC0467FA9030092000F4008B5064B11
:400980001B78002B04D1FFF7DDFF0122024B1A70FFF7A2FF08BDC04689010020014B18647047C0460000002010B5041CFFF76AFD054B1968C0229143A2010C1C14431C60C0
:4009C000FFF764FD10BDC04600E400E00122014B1A60704700E100E00122014B1A60704780E100E010B5041CFFF7F6FF201CFFF7D5FF0320FFF7D8FFFFF7E8FF10BDC04651
:400A0000CBB203700B0ADBB24370090CC9B281707047C046027843781B021343807800041843704704490F220B681340082BFBD0024B18607047C0460802074040020740DF
:400A4000002934D00123002210B488422CD301242407A14204D2814202D209011B01F8E7E400A14204D2814202D249005B00F8E7884201D3401A1A434C08A04202D3001B9F
:400A80005C0822438C08A04202D3001B9C082243CC08A04202D3001BDC082243002803D01B0901D00909E3E7101C10BC7047002801D00020C04307B4024802A140180290E6
:400AC00003BDC046190000000029F0D003B5FFF7B9FF0EBC4243891A1847C0467047C046014B18687047C0464401002070B50E4B0E4D0024ED1AAD101E1CAC4204D0A30066
:400B0000F35898470134F8E700F0F4FC084B094D0024ED1AAD101E1CAC4204D0A300F35898470134F8E770BD00150000001500000015000008150000031C8218934202D040
:400B400019700133FAE770470EB400B59CB01DAB04CB822202A992008A810A4A02908A604A6101225242CA81074A086110681D9A019300F06BF8029A002313701CB008BCBB
:400B800003B01847FFFFFF7F44010020F0B58D6885B0071C0C1C03920193AB4245D390228B89D20013423DD062690326564309692068F20F401A96190290021C01980132F3
:400BC00012187610964200D2161C381C5A050FD5311C00F02BFB051E13D0029A216900F0BAFAA289184B134080221343A38111E0321C00F06FFB051E0CD1381C216900F03B
:400C0000CDFA0C233B60A389402213430120A381404217E0029B2561ED1825606661019DF61AA6600198A84200D2019D2A1C2068039900F099FAA2680020531BA360236853
:400C40005D19256005B0F0BD7FFBFFFFF0B59FB0039005938B890E1C171C19060FD53269002A0CD1402100F0E1FA30603061002803D103990C230B60C9E04023736106AD58
:400C800000236B6120236B763023AB763C1C2378002B03D1E21B029211D003E0252BF9D00134F4E70398311C3A1C029BFFF76EFF013000D1A6E06969029A8B186B612378FF
:400CC000002B00D19EE0012252426A606A4600235B3201342B60EB60AB601370AB654E4F2178381C052200F02BFA002807D0C71B2B680120B840184328600134EFE72B681C
:400D0000D90603D56A4620215B3211701A0703D56A462B215B32117022782A2A01D0099B0EE0059A111D12680591002A01DB099204E05242EA60022213432B60013409E046
:400D40002278303A092A04D80A214B4301349B18F6E7099323782E2B18D163782A2B09D1059B02341A1D1B680592002B0DDA01235B420AE0013400232278303A092A04D810
:400D80000A214B4301349B18F6E70793234F2178381C032200F0D4F9002806D0C71B2B684020B84018432860013421781C480622671C297600F0C4F9002812D0194B002B6A
:400DC00006D1059B0722073393430833059314E005AB00930398291C321C134B00E000BF07E005AB00930398291C321C0E4B00F091F804900499013104D06A6904995318D2
:400E00006B6143E7B3895A0601D40B9801E0012040421FB0F0BDC046BE140000C4140000C8140000000000008D0B0000F7B5151C01930A698B68061C0C1C934200DA131C85
:400E4000221C2B6043321278002A01D001332B602068800602D52B6802332B60216806270F401FD0231C43331B785A1E9341226892061FD5E11840313020C870211C5A1C75
:400E800045310978A21840320233D17012E0221C301C019919320123089FB847013011D0009F01370097E0682968009F431A9F42EDDBD7E7221C301C01994332089FB84773
:400EC000013002D10120404223E0206806212B68E26801400025042903D1D51AEB43DB171D40A26823699A4201DDD31AED1800270097009FAF420BDA221C301C01991A3204
:400F00000123089FB8470130DCD0009F0137EFE70020FEBDF0B50D1C8BB0433506920590079304950B7E0C1C109A6E2B00D1A7E011D8632B22D009D8002B00D1B0E0582BFC
:400F400000D0C0E045310B707B4D4EE0642B1CD0692B1AD0B7E0732B00D1A5E009D86F2B29D0702B00D0AEE00E68202333430B6036E0752B1FD0782B32D0A4E013680D1C1D
:400F8000191D423511601B689FE0216813680E0603D5191D11601E6805E04806F9D5191D116000215E5E644B002E3BDA049D2D2276422A7036E0216813680E0603D5191DFF
:400FC00011601E6804E04806F9D5191D1E881160594B227E039308276F2A1ED00A271CE0231C78214533554D197011682368081D039510601E0601D50E6802E05806FBD5C4
:401000000E88D90702D52022134323601027002E03D1226820239A432260231C002243331A7001E003930A276368A360002B03DB2568042295432560002E02D1049D002B26
:401040000ED0049D301C391CFFF73EFD0398013D435C301C2B70391CFFF7F2FC061EF1D1082F09D12168C90706D5626823699A4202DC013D30232B70049E731B23612AE062
:40108000086813684969050604D5181D10601B68196005E04606F8D5181D10601B68198000232361049D16E01368191D11601D68281C00F047F963682061984200D9236173
:4010C0002069606004E0251C42352B7001232361049E00233370079E05980096211C09AA069BFFF7A3FE013002D10120404221E02A1C059806992369079DA8470130F4D022
:401100002668B60705D4099BE068984212DA181C10E00025E0680999431A9D42F3DA221C0598069919320123079EB0470130DCD00135EFE70BB0F0BDCF140000E0140000F0
:40114000C9B28218904204D003788B4202D00130F8E70020704710B50023934203D0CC5CC4540133F9E710BD70B5814201D300230CE08C18A042FAD28518131C013B0BD3FF
:4011800051426618F65C6918CE54F7E7934203D0CC5CC4540133F9E770BD000030B5002940D004390B68002B00DAC9181E4A1368141C002B02D14B60116033E099420FD272
:4011C00008680A189A4205D113685268C01808604A6000E04B60216024E08A4203D8131C5A68002AF9D11D685C198C420BD10968691858181960904214D114685268091962
:4012000019605A600EE08C4202D90C23036009E008680C18944203D114685268001908604A60596030BDC0469001002070B50323CD1C9D430835061C0C2D01D20C2501E0DC
:40124000002D3FDB8D423DD3204B1C681A1C211C002913D00868431B0DD40B2B02D90B60CC181EE08C4202D1636813601AE0486860600C1C16E00C1C4968E9E7144C2068D5
:40128000002803D1301C00F04BF82060301C291C00F046F8431C15D0C41C03239C4384420AD12560201C0B300722231D9043C31A0BD05A42E25008E0211A301C00F030F865
:4012C0000130EED10C233360002070BD900100208C010020F8B5061C0C1C151C002904D1111CFFF7A3FF041C18E0002A03D1FFF755FF2C1C12E000F02CF8A8420ED2301CE2
:40130000291CFFF793FF071E07D0211C2A1CFFF722FF301C211CFFF741FF3C1C201CF8BD38B5074C0023051C081C2360FEF7AAFF431C03D12368002B00D02B6038BDC0463A
:40134000940100200023C25C0133002AFBD1581E704704390B68181F002B02DAC8581B18181F704700000000200A200D000000002564000000300F40000400400F400004FB
:4013800001000F4028300F4008310F401F320F4015330F4004400F4005410F4004430F4002600F40820D405149FF4AFF4BFF4F0150185A045D095F016040624064406540A6
:4013C000668068806A806C806E80C041C9FFCAFFCBFFCD83CE03CF01D018D280DA04DB04DD99DF01E040E240E440E540E680E880EA80EC80EE804202468248017401768064
:401400007780D098D2080E012E0130013E01404145EC4720482349FF4AFF4BFF4D834E034F0150185401560458045A045B045D995F016040624064406540668068806A802C
:401440006C806E80060217801E8046824D044F0156025D045E805F01678087409A809B809E02C080C480D090D6D0D880E28053046F02D420DA8087028B049708A702E210C6
:4014800019088908C608E20102011101030405060708090A0B0C0E0F101112131415161718191B1C1D1E1F2021222325262728292A2B2E2F30313233343500004300232D31
:4014C000302B2000686C4C006566674546470030313233343536373839414243444546003031323334353637383961626364656600000000F8B5C046F8BC08BC9E46704783
:40150000A9010000FD020000F8B5C046F8BC08BC9E4670478101000028150000C8000020800000005000000000000000980100200000E02EC05D00001800000000366E0124
:40154000040404000000000000000000000000000000000000000000000000000000000000000000BC1400000000000000000000000000000000000000000000000000008F
:40158000000000000000000000000000000000000000000000000000000000000000000000000000E400002000000000000000000000000000000000000000000000000027
:4015C00000000000000000000000000000000000000000000000000000000000000000000000000000000000000000000000000000000000000000000000000000000000EB
:4016000000000000000000000000000000000000000000000000000000000000000000000000000000000000000000000000000000000000000000000000000000000000AA
:40164000000000000000000000000000000000000000000000000000000000000000000000000000000000000000000000000000000000000000000000000000000000006A
:40168000000000000000000000000000000000000000000000000000000000000000000000000000000000000000000000000000000000000000000000000000000000002A
:0200000490303A
:020000001F01DE
:0200000490402A
:200000000000000000000000000000000000000000000000000000000000000000000000E0
:0200000490501A
:0C000000000204C81193110104CF3094D9
:0200000490600A
:0100000001FE
:00000001FF