:400000000010002011000000910200009102000008B500F03FF9C04610B5154C22688023DB0213432360182000F0C4FA2268114B13402360104A114B1A602022104B1A607C
:400040001022104B1A60802212060F4B1A600F4A0F4B1A600F4A104B1A6009200F4900F08FFA092000F080FA00220D4B1A6010BD00010B40FFFFFBFF0600008004010B4028
:400080000C0202403002024008010B400100008000000240CF00008040000240C90700000C020B4038B572B60122314B1A700024304D0CE063001B195B00EB1899881A88E8
:4000C00058880004104300F04BF90134E4B2012CF0D92849081C0C302C3100F025F980225200254B1A800122244B1A7099231B04234A1360EE210902224A1160224A1360ED
:4001000080210906214A1160214A1360214A13600223214A1360214A1360214B197802220A431A701F4A11783C208143142001431170197816220A431A70A0221A4B1A6052
:400140001A4A1B4B1A608022D2011A4B1A602022194B1A604022194B1A60C0225203184B1A60D8221201174B1A60FFF755FF38BD1C700F40000A000000600F4002600F4006
:40018000000001400C00014000500F4004500F4010500F4030500F402000004000800F4000700F4001700F400000044000104300080004400C00044018000440000104406F
:4001C000080104400803044010B5064C2378002B07D1054B002B02D0044800E000BF0123237010BDE000002000000000F009000008B5084B002B03D00748084900E000BFAC
:4002000007480368002B03D0064B002B00D0984708BDC04600000000F0090000E4000020C80000200000000008B500F04BF943425841C0B200F03AF9034800F091FB00F0D0
:40024000ABF800F09BF808BDF409000008B500F039F943425841C0B200F028F9034800F07FFB00F0D7F800F0E5F808BDF809000008B572B6044800F053F9044800F008F965
:4002800000F008FB62B6FEE7290200004D020000FEE7C046F8B50F4F0F4E002412E031687368B568221C02E001C901C30432AA42FAD1F168221C01E010C304328A42FBD126
:4002C0001036013F002FEAD100F064FBFFF7D0FFFEE7C04601000000780B000038B500230D4C0E4D0E4808E0032B02D89A00515900E0211C9A00115001332F2BF4D9FFF754
:40030000D1FE0022074B1A608023DB05196801220A431A6038BDC046910200000000000000000020C0000020F0B500220027FF239C4611E0BB00C658F3B26446A64308E0A8
:4003400054000C192578AD1964782C700132013BDBB2002BF4D10137072FEBD9F0BDC04608B50A1C002100F03BFB08BD024B197880220A431A70704771000F40024B1978BD
:400380007F220A401A70704771000F40014B18707047C04683000F40014B1878C0B2704763000F40014B18607047C04680200F40014B18687047C04600210F40014B18600A
:4003C0007047C04600200F4010B5082401E0FFF7EFFFFFF7E1FF0442F9D110BD10B50B4C201CFFF7DFFF201CFFF7E8FF00F0B2F8074B197810220A431A7000F0AFF8FFF710
:40040000E3FF0120FFF7C2FF10BDC046FF50250293000F4008B5064B1B78002B04D1FFF7DDFF0122024B1A70FFF7A0FF08BDC046FC000020034B1868802210401860C009ED
:40044000C0B2704710000440014B18647047C0460000002010B5041C00F07CF8054B1968C0229143A2010C1C14431C6000F076F810BDC04600E400E00122014B1A60704757
:4004800000E100E00122014B1A60704780E100E010B5041CFFF7F6FF201CFFF7D5FF0320FFF7D8FFFFF7E8FF10BDC046044B1968BF220A408001402108401043186070477D
:4004C00000010440024B18684006C00F7047C04604010440014B58647047C0460000002010B5041C00F036F8054B1968054A1140A2030C1C14431C6000F030F810BDC046EB
:4005000000E400E0FF3FFFFF0222014B1A60704700E100E00222014B1A60704780E100E010B5041CFFF7F6FF201CFFF7D3FF0320FFF7D6FFFFF7E8FF10BDC0460000000005
:400540000230800804D0C0460138FDD1C046C046C0467047EFF3108072B6704780F310887047C046C046C0461F23184001238340181C014B1860704700E100E001BE70478B
:4005800038B5041C0D1C1F2802D90020FFF7F6FFA400024BE4182068256038BD4000002008B5034B1B7A5843FFF7CAFF08BDC046CC000020F0B557464E464546E0B4041CC3
:4005C000FFF7C8FF8046E51E2D2D73D83F4B1B78DBB2A34208D33E4B1B78DBB29A463D4B1B78DBB2994631E03B4B1B78DBB2A34208D33A4B1B78DBB29A46394B1B78DBB2B6
:40060000994623E0374B1B78DBB2A34208D3364B1B78DBB29A46354B1B78DBB2994615E0334B1B78DBB2A34208D3324B1B78DBB29A46314B1B78DBB2994607E02F4B1B7837
:40064000DBB29A462E4B1B78DBB299462D4B5E5D2F2E09D92A2C07D919222B4B1A600520FFF76EFF192703E0274B1F683F231F40BE4206D2234B5A5D234B1A600520FFF75D
:400680005FFF1F4AA4182278D2B2204B1A60204B52461A601F4B4A461A600520FFF780FFBE420AD9174B5A5D174B1A600520FFF747FF02E00020FFF761FF4046FFF74EFFCF
:4006C0001CBC90469946A246F0BDC046C0F1FF0FC1F1FF0FC2F1FF0FC3F1FF0FC4F1FF0FC5F1FF0FC6F1FF0FC7F1FF0FC8F1FF0FC9F1FF0FCAF1FF0FCBF1FF0FCCF1FF0FD1
:40070000CDF1FF0F240B00002CFF0B4028FF0B401CFF0B4020FF0B40044B1A68C0231B021A4201D0012000E00020704700010B4008B5FFF70FFF044B1968C02212020A4310
:400740001A60FFF70BFF08BD00010B4010B5FFF701FF084B1968084A11408024E4012143196019680A40802109020A431A60FFF7F5FE10BD00010B40FF3FFFFF38B5051CCC
:40078000FFF7E8FE041CFFF7C7FF002803D0FFF7DDFF012200E00022084B1D40084B1868084901400D431D601B68012A01D1FFF7BFFF201CFFF7D2FE38BDC0460404040070
:4007C00010020B40FBFBFBFF10B5244B1B685A0715D5234B1B685A070ED5224B9C69042214401F490868A0430860996991439961DB68002B00D098470420FFF7BFFF174B3F
:400800001B685A0518D5164B1B685A0510D5154B9A698020C0001040114A1168814311609969114A0A409A611B69002B00D098478020C000FFF7A2FF084B1B685A030CD59A
:40084000074B1B685A0304D5064B5B69002B00D098478020C002FFF791FF10BD10020B40DC00002000010020FFFBFFFF08B500F069F808BD08B500F01DF808BD08B5044BF1
:400880001968802212060A431A60FFF7EFFF08BD0000074008B5064B1B78002B04D1FFF7E9FF0122024B1A70FFF7E8FF08BDC0461C01002010B5124A124B1A600023124A71
:4008C00013600121114A1160114A12480260072411480460114803601148016011490A60114A1360114A1360114A1360114A1360114A1360114A1360114A136010BDC046E9
:400900000B00000200000740400007404800074007000080000307400403074010030740440007400002074004020740880E0740C80E0740480F0740080F0740C80F07409F
:40094000880F0740044B1968044A0A40902109040A431A607047C04600000140FFFF0FFF38B5051C002402E000F006F80134285D0028F9D138BDC04604490F220B681340B5
:40098000082BFBD0024B18607047C046080207404002074070B50E4B0E4D0024ED1AAD101E1CAC4204D0A300F35898470134F8E700F0D0F8084B094D0024ED1AAD101E1CBC
:4009C000AC4204D0A300F35898470134F8E770BD600B0000600B0000600B0000680B0000031C8218934202D019700133FAE7704700000000486900007072657373000000E0
:400A000000300F40000400400F40000401000F4026300F4007310F4031320F4015330F4002400F4003410F4002600F40830D405449FF4AFF4BFF4F0150185A045F016040F1
:400A4000624064406540668068806A806C806E80C041C9FFCAFFCBFFCD83CE03CF01D018D280DA04DB04DF01E040E240E440E540E680E880EA80EC80EE80410146814801E6
:400A800074017680D091D208404149FF4AFF4BFF4D834E034F0150185A045F016040624064406540668068806A806C806E8082018E01B601BE40C054C5ECC720C823C9FF5A
:400AC000CAFFCBFFCD83CE03CF01D018D401D604D804DA04DB04DF01E040E240E440E540E680E880EA80EC80EE8000020201194041014681480149055101520159456380A1
:400B0000834095029A809E01A001C009D091D208D60BD8016F10DA8083109F10E220100111010000030405060708090A0B0C0E0F101112131415161718191B1C1D1E1F201D
:400B400021222325262728292A2B2E2F3031323334350000F8B5C046F8BC08BC9E467047F1010000DD020000F8B5C046F8BC08BC9E467047C9010000880B0000C8000020C9
:400B80001800000040000000000000000000E02EC05D00001800000000366E01040404000000000000000000000000000000000000000000000000000000000000000000E9
:400BC00000000000000000000000000000000000000000000000000000000000000000000000000000000000000000000000000000000000000000000000000000000000F5
:400C000000000000000000000000000000000000000000000000000000000000000000000000000000000000000000000000000000000000000000000000000000000000B4
:400C40000000000000000000000000000000000000000000000000000000000000000000000000000000000000000000000000000000000000000000000000000000000074
:400C80000000000000000000000000000000000000000000000000000000000000000000000000000000000000000000000000000000000000000000000000000000000034
:0200000490303A
:02000000F5FF0A
:0200000490402A
:200000000000000000000000000000000000000000000000000000000000000000000000E0
:0200000490501A
:0C000000000204C81193110104CC079207
:0200000490600A
:0100000001FE
:00000001FF