:400000000010002011000000CD020000CD02000008B500F05DF9C04610B5124C22688023DB0213432360182000F030FB22680E4B134023600D4A0E4B1A6010220D4B1A6098
:40004000802212060C4B1A600C4A0D4B1A6009200C4900F0E9FA092000F0DAFA00220A4B1A6010BD00010B40FFFFFBFF0600008004010B400C02024008010B40CF000080C4
:4000800000000240A10800000C020B4038B572B60024284D0CE063001B195B00EB1899881A8858880004104300F078F90134E4B2012CF0D91F49081C0C30103100F052F90D
:4000C00099231B041C4A1360EE2109021B4A11601B4A1360802109061A4A11601A4A13601A4A13601A4B197802220A431A70194A11783C2081431420014311701978162292
:400100000A431A70A022144B1A60144A144B1A6080221202134B1A602022134B1A60C0225203124B1A60D8221201114B1A60FFF773FF38BD380A0000000001400C00014050
:4001400000500F4004500F4010500F4030500F4000700F4001700F400000044000104300080004400C00044018000440080104400803044010B5064C2378002B07D1054B10
:40018000002B02D0044800E000BF0123237010BDE000002000000000EC09000008B5084B002B03D00748084900E000BF07480368002B03D0064B002B00D0984708BDC046E3
:4001C00000000000EC090000E4000020C80000200000000010B500F07DF9041C00F016F9231C303B052B02D8313C034B1C60034B1A681A6010BDC04620010020C00F074075
:4002000008B5322000F020FA00F09CFB0028FBD0322000F019FA094B1B78002B03D1084800F06EF902E0074800F06AF9034B197801224A401A7000F08DFB08BD1C01002035
:40024000040A00001C0A0000F8B50022184B1A7072B6184800F086F9174800F0B5F962B600F0B6F8FA246400114D144E144F2B78002B11D03268042A0ED89300FB589F4617
:40028000FA24A40008E00F4C06E0FA24E40003E00D4C01E0FA24640000F072FB43424341D8B200F061FB201C00F0CEF9DFE7C0461C010020D5010000010200002001002060
:4002C000F0090000DC050000C4090000FEE7C046F8B50F4F0F4E002412E031687368B568221C02E001C901C30432AA42FAD1F168221C01E010C304328A42FBD11036013F23
:40030000002FEAD100F044FBFFF79EFFFEE7C04601000000A00A000038B500230D4C0E4D0E4808E0032B02D89A00515900E0211C9A00115001332F2BF4D9FFF7A7FE0022FD
:40034000074B1A608023DB05196801220A431A6038BDC046CD0200000000000000000020C0000020F0B500220027FF239C4611E0BB00C658F3B26446A64308E054000C19A4
:400380002578AD1964782C700132013BDBB2002BF4D10137002FEBD0F0BDC04608B50A1C002100F01BFB08BD08B500F085F808BD08B500F039F808BD08B5044B1968802211
:4003C00012060A431A60FFF7EFFF08BD0000074008B5064B1B78002B04D1FFF7E9FF0122024B1A70FFF7E8FF08BDC046FC000020014B18687047C04640030740024B1B680E
:400400000F2018407047C0460803074004490F220B681340082BFBD0024B18607047C046080207404002074010B5124A124B1A600023124A13600121114A1160114A1248FB
:400440000260072411480460114803601148016011490A60114A1360114A1360114A1360114A1360114A13600421114A1160114A136010BD0B00000200000740400007408B
:400480004800074007000080000307400403074010030740440007400002074004020740880E0740C80E0740480F0740080F0740C80F0740880F0740044B1968044A0A40B9
:4004C000902109040A431A607047C04600000140FFFF0FFF08B5FFF791FF002802D0FFF787FF00E00020054B1A68D8239B001A4203D01A1C014B1A60002008BDC00F074026
:4005000038B5051C002402E0FFF780FF0134285D0028F9D138BDC046014BD8667047C0460000002010B5041C00F068F8044B1A6892009208A40714431C6000F063F810BD5C
:4005400008E400E080221201014B1A607047C04600E100E080221201014B1A607047C04680E100E010B5041CFFF7F4FF201CFFF7D3FF0320FFF7D6FFFFF7E4FF10BDC046D1
:40058000014B18647047C0460000002010B5041C00F034F8054B1968C0229143A2010C1C14431C6000F02EF810BDC04600E400E00122014B1A60704700E100E00122014BF3
:4005C0001A60704780E100E010B5041CFFF7F6FF201CFFF7D5FF0320FFF7D8FFFFF7E8FF10BDC046000000000230800804D0C0460138FDD1C046C046C0467047EFF310803D
:4006000072B6704780F310887047C046C046C0461F23184001238340181C014B1860704700E100E001BE704738B5041C0D1C1F2802D90020FFF7F6FFA400024BE4182068C8
:40064000256038BD4000002070B5041C80252D02074E04E03068FFF7C7FF064BE418AC42F8D8034B58686043FFF7BEFF70BDC046CC0000200080FFFF08B5034B1B7A5843B3
:40068000FFF7B2FF08BDC046CC000020F0B557464E464546E0B4041CFFF7B0FF8046E51E2D2D73D83F4B1B78DBB2A34208D33E4B1B78DBB29A463D4B1B78DBB2994631E029
:4006C0003B4B1B78DBB2A34208D33A4B1B78DBB29A46394B1B78DBB2994623E0374B1B78DBB2A34208D3364B1B78DBB29A46354B1B78DBB2994615E0334B1B78DBB2A342AF
:4007000008D3324B1B78DBB29A46314B1B78DBB2994607E02F4B1B78DBB29A462E4B1B78DBB299462D4B5E5D2F2E09D92A2C07D919222B4B1A600520FFF756FF192703E0A7
:40074000274B1F683F231F40BE4206D2234B5A5D234B1A600520FFF747FF1F4AA4182278D2B2204B1A60204B52461A601F4B4A461A600520FFF780FFBE420AD9174B5A5DCA
:40078000174B1A600520FFF72FFF02E00020FFF749FF4046FFF736FF1CBC90469946A246F0BDC046C0F1FF0FC1F1FF0FC2F1FF0FC3F1FF0FC4F1FF0FC5F1FF0FC6F1FF0FAD
:4007C000C7F1FF0FC8F1FF0FC9F1FF0FCAF1FF0FCBF1FF0FCCF1FF0FCDF1FF0F4C0A00002CFF0B4028FF0B401CFF0B4020FF0B40044B1A68C0231B021A4201D0012000E06D
:400800000020704700010B4008B5FFF7F7FE044B1968C02212020A431A60FFF7F3FE08BD00010B4010B5FFF7E9FE084B1968084A11408024E4012143196019680A4080217D
:4008400009020A431A60FFF7DDFE10BD00010B40FF3FFFFF38B5051CFFF7D0FE041CFFF7C7FF002803D0FFF7DDFF012200E00022084B1D40084B1868084901400D431D60FE
:400880001B68012A01D1FFF7BFFF201CFFF7BAFE38BDC0460404040010020B40FBFBFBFF10B5244B1B685A0715D5234B1B685A070ED5224B9C69042214401F490868A043E8
:4008C0000860996991439961DB68002B00D098470420FFF7BFFF174B1B685A0518D5164B1B685A0510D5154B9A698020C0001040114A1168814311609969114A0A409A61B4
:400900001B69002B00D098478020C000FFF7A2FF084B1B685A030CD5074B1B685A0304D5064B5B69002B00D098478020C002FFF791FF10BD10020B40DC0000200001002025
:40094000FFFBFFFF024B18680006C00F7047C04604000440034B1868802210401860C009C0B2704710000440044B1968BF220A40800140210840104318607047000104406E
:40098000024B18684006C00F7047C0460401044070B50E4B0E4D0024ED1AAD101E1CAC4204D0A300F35898470134F8E700F066F8084B094D0024ED1AAD101E1CAC4204D0D6
:4009C000A300F35898470134F8E770BD880A0000880A0000880A0000900A0000031C8218934202D019700133FAE77047000000009402000080020000860200008A020000B8
:400A0000900200000A200D20496E70757420697320656E61626C6564000000000A200D20496E7075742069732064697361626C65640000002564000000300F4000040040CF
:400A40000F40000402600F4002011101030405060708090A0B0C0E0F101112131415161718191B1C1D1E1F2021222325262728292A2B2E2F3031323334350000F8B5C046BA
:400A8000F8BC08BC9E4670479D01000019030000F8B5C046F8BC08BC9E46704775010000B00A0000C80000201800000048000000000000000000E02EC05D000018000000E8
:400AC00000366E0104040400000000000000000000000000000000000000000000000000000000000000000000000000000000000000000000000000000000000000000045
:400B000000000000000000000000000000000000000000000000000000000000000000000000000000000000000000000000000000000000000000000000000000000000B5
:400B40000000000000000000000000000000000000000000000000000000000000000000000000000000000000000000000000000000000000000000000000000000000075
:400B80000000000000000000000000000000000000000000000000000000000000000000000000000000000000000000000000000000000000000000000000000000000035
:400BC00000000000000000000000000000000000000000000000000000000000000000000000000000000000000000000000000000000000000000000000000000000000F5
:0200000490303A
:020000008ED49C
:0200000490402A
:200000000000000000000000000000000000000000000000000000000000000000000000E0
:0200000490501A
:0C000000000204C81193110104CBA0679A
:0200000490600A
:0100000001FE
:00000001FF