:400000000010002011000000E1040000E104000008B500F07FFAC04610B5124C22688023DB0213432360182000F0BEFB22680E4B134023600D4A0E4B1A6010220D4B1A60BB
:40004000802212060C4B1A600C4A0D4B1A6009200C4900F08FFB092000F080FB00220A4B1A6010BD00010B40FFFFFBFF0600008004010B400C02024008010B40CF00008076
:4000800000000240BD0900000C020B4038B572B60122284B1A700024274D0CE063001B195B00EB1899881A8858880004104300F097FA0134E4B2012CF0D91F49081C0C302D
:4000C0002C3100F071FA99231B041C4A1360EE2109021B4A11601B4A13601B4A13601B4A136001221A4B1A6002221A4B1A601A4B19780A431A70194A11783C20814314200A
:4001000001431170197816220A431A702023144A1360C4218902134A1160134A1360C0225203124B1A60D8221201114B1A60FFF773FF38BD1C700F40541700000000014063
:400140000C00014000500F4010500F4030500F402000004000800F4000700F4001700F40000004400800044018000440080104400803044010B5064C2378002B07D1054BDA
:40018000002B02D0044800E000BF0123237010BD58010020000000002015000008B5084B002B03D00748084900E000BF07480368002B03D0064B002B00D0984708BDC0462A
:4001C00000000000201500005C010020C80000200000000008B5094B1B68023306D100F04BFC43425841C0B200F03AFC044B1A6801321A6000F056FC08BDC046CC00002061
:400200007401002010B500F087FA031CC4B2FF20184000F01DFA201C10BDC04600B585B0021C01A8034900F06DFD01A800F08AFA05B000BD2415000000B585B0021C01A801
:40024000034900F05FFD01A800F07CFA05B000BD2815000030B585B0022252422A4B1A602A4800F06FFA002406E0FFF7CBFF302802D902AB18550134042CF6DD244800F0F1
:4002800061FA002406E0FFF7BDFF302802D96B4618550134042CF6DD01200023002407E002AAD15C6D46EA5C914200D0201C0133042BF5DD002806D10AE002AAD15CC218CD
:4002C0001171013301E000230F48042BF5DD02E0104800F037FA104800F034FA00240A4D04E02B191879FFF7A7FF0134042CF8DD0A4800F027FA01225242034B1A6001200E
:4003000000F0AEFB05B030BDCC0000202C1500003C1500006015000098150000B415000070B52C4C251C2C4EFFF76CFF2379834206D12B68002B43D133600122254B1A60B6
:40034000244B5B79834206D1224B1B68012B39D10222204B1A601F4B9B79834206D11D4B1B68022B30D103221A4B1A60194BDB79834206D1174B1B68032B27D10422154B53
:400380001A60144B1B7A834205D1124B1B68042B1ED101201DE001220F4B1B68322B00DC00220C4B1B68D917CB1ADB0F1342BBD00A4800F0C7F90022074B1A60002008E04C
:4003C000002006E0002004E0002002E0002000E0002070BDCC00002074010020D4150000F8B54F464646C0B472B6324800F0D2FB62B600F09BFB00F00DF92F4800F0A2F903
:400400002E4800F09FF900242D4D04E02B191879FFF712FF0134042CF8DD012000F020FB284800F08FF90024254A9146264B9846264FFFF7E7FE032C37DC312802D0322842
:400440002DD0F6E700234A461360642000F008FB404600F077F91E4E194DFFF761FF01280AD100F0FDFA01225242154B1A60194800F068F90024DCE70134032C03DD164840
:4004800000F060F9D5E7381C00F05CF9201CFFF7C5FE301C00F056F900232B60DDE70F4800F050F9FFF7D6FEC3E70CBC90469946F8BDC046D5010000E8150000081600007F
:4004C000CC000020241600006C16000000170000281700008C160000CC1600002C170000FEE7C04608B5094B1B681818084A821A802A02DC054A106005E000F0CFFB0C2385
:40050000036001235B42181C08BDC046D8000020B0010020F8B50F4F0F4E002412E031687368B568221C02E001C901C30432AA42FAD1F168221C01E010C304328A42FBD10C
:400540001036013F002FEAD100F0AEFBFFF748FFFEE7C04601000000E418000038B500230D4C0E4D0E4808E0032B02D89A00515900E0211C9A00115001332F2BF4D9FFF796
:4005800085FD0022074B1A608023DB05196801220A431A6038BDC046E10400000000000000000020C0000020F0B500220027FF239C4611E0BB00C658F3B26446A64308E021
:4005C00054000C192578AD1964782C700132013BDBB2002BF4D10137072FEBD9F0BDC04608B50A1C002100F085FB08BD08B500F085F808BD08B500F039F808BD08B5044BFF
:400600001968802212060A431A60FFF7EFFF08BD0000074008B5064B1B78002B04D1FFF7E9FF0122024B1A70FFF7E8FF08BDC0467C010020014B18687047C04640030740F7
:40064000024B1B680F2018407047C0460803074004490F220B681340082BFBD0024B18607047C046080207404002074010B5124A124B1A600023124A13600121114A11609E
:40068000114A12480260072411480460114803601148016011490A60114A1360114A1360114A1360114A1360114A1360114A1360114A136010BDC0460B0000020000074038
:4006C000400007404800074007000080000307400403074010030740440007400002074004020740880E0740C80E0740480F0740080F0740C80F0740880F0740044B196888
:40070000044A0A40902109040A431A607047C04600000140FFFF0FFF08B5FFF791FF002802D0FFF787FF00E00020054B1A68D8239B001A4203D01A1C014B1A60002008BD61
:40074000C00F074038B5051C002402E0FFF780FF0134285D0028F9D138BDC0461F23184001238340181C014B1860704700E100E001BE704738B5041C0D1C1F2802D9002054
:40078000FFF7F6FFA400024BE4182068256038BD4000002008B5034B1B7A584300F008FA08BDC046DC000020F0B557464E464546E0B4041C00F006FA8046E51E2D2D73D898
:4007C0003F4B1B78DBB2A34208D33E4B1B78DBB29A463D4B1B78DBB2994631E03B4B1B78DBB2A34208D33A4B1B78DBB29A46394B1B78DBB2994623E0374B1B78DBB2A34276
:4008000008D3364B1B78DBB29A46354B1B78DBB2994615E0334B1B78DBB2A34208D3324B1B78DBB29A46314B1B78DBB2994607E02F4B1B78DBB29A462E4B1B78DBB29946B9
:400840002D4B5E5D2F2E09D92A2C07D919222B4B1A60052000F0ACF9192703E0274B1F683F231F40BE4206D2234B5A5D234B1A60052000F09DF91F4AA4182278D2B2204BD0
:400880001A60204B52461A601F4B4A461A600520FFF780FFBE420AD9174B5A5D174B1A60052000F085F902E00020FFF761FF404600F08CF91CBC90469946A246F0BDC0464D
:4008C000C0F1FF0FC1F1FF0FC2F1FF0FC3F1FF0FC4F1FF0FC5F1FF0FC6F1FF0FC7F1FF0FC8F1FF0FC9F1FF0FCAF1FF0FCBF1FF0FCCF1FF0FCDF1FF0F581800002CFF0B4045
:4009000028FF0B401CFF0B4020FF0B40044B1A68C0231B021A4201D0012000E00020704700010B4008B500F04DF9044B1968C02212020A431A6000F049F908BD00010B4090
:4009400010B500F03FF9084B1968084A11408024E4012143196019680A40802109020A431A6000F033F910BD00010B40FF3FFFFF38B5051C00F026F9041CFFF7C7FF0028DD
:4009800003D0FFF7DDFF012200E00022084B1D40084B1868084901400D431D601B68012A01D1FFF7BFFF201C00F010F938BDC0460404040010020B40FBFBFBFF10B5244B9A
:4009C0001B685A0715D5234B1B685A070ED5224B9C69042214401F490868A0430860996991439961DB68002B00D098470420FFF7BFFF174B1B685A0518D5164B1B685A05AC
:400A000010D5154B9A698020C0001040114A1168814311609969114A0A409A611B69002B00D098478020C000FFF7A2FF084B1B685A030CD5074B1B685A0304D5064B5B698A
:400A4000002B00D098478020C002FFF791FF10BD10020B40EC00002080010020FFFBFFFF044B1968BF220A4080014021084010431860704700010440024B18684006C00F17
:400A80007047C04604010440024B197880220A431A70704771000F40014B18707047C04682000F40014B1878C0B2704762000F4008B5011C014800F08FF808BD20000F407C
:400AC00008B5024800F092F808BDC04640000F4008B5011C014800F07FF808BD00000F4010B5082401E0FFF7EBFFFFF7DBFF0442F9D110BD10B50B4C201CFFF7D9FF201CBC
:400B0000FFF7E6FF00F05EF8074B197810220A431A7000F05BF8FFF7E3FF0120FFF7BCFF10BDC046FF9E240092000F4008B5064B1B78002B04D1FFF7DDFF0122024B1A70D9
:400B4000FFF7A2FF08BDC0469C010020014B18647047C0460000002010B5041C00F032F8054B1968C0229143A2010C1C14431C6000F02CF810BDC04600E400E00122014B73
:400B80001A60704700E100E00122014B1A60704780E100E010B5041CFFF7F6FF201CFFF7D5FF0320FFF7D8FFFFF7E8FF10BDC0460230800804D0C0460138FDD1C046C04645
:400BC000C0467047EFF3108072B6704780F310887047C046C046C046CBB203700B0ADBB24370090CC9B281707047C046027843781B0213438078000418437047002934D0AD
:400C00000123002210B488422CD301242407A14204D2814202D209011B01F8E7E400A14204D2814202D249005B00F8E7884201D3401A1A434C08A04202D3001B5C08224341
:400C40008C08A04202D3001B9C082243CC08A04202D3001BDC082243002803D01B0901D00909E3E7101C10BC7047002801D00020C04307B4024802A14018029003BDC04627
:400C8000190000000029F0D003B5FFF7B9FF0EBC4243891A1847C0467047C046014B18687047C0465001002070B50E4B0E4D0024ED1AAD101E1CAC4204D0A300F358984734
:400CC0000134F8E700F0FCFD084B094D0024ED1AAD101E1CAC4204D0A300F35898470134F8E770BDCC180000CC180000CC180000D4180000031C8218934202D019700133A7
:400D0000FAE770470EB400B59CB01DAB04CB822202A992008A810A4A02908A604A6101225242CA81074A086110681D9A019300F06BF8029A002313701CB008BC03B01847A4
:400D4000FFFFFF7F50010020F0B58D6885B0071C0C1C03920193AB4245D390228B89D20013423DD062690326564309692068F20F401A96190290021C019801321218761087
:400D8000964200D2161C381C5A050FD5311C00F02BFB051E13D0029A216900F0BAFAA289184B134080221343A38111E0321C00F06FFB051E0CD1381C216900F0CDFA0C2333
:400DC0003B60A389402213430120A381404217E0029B2561ED1825606661019DF61AA6600198A84200D2019D2A1C2068039900F099FAA2680020531BA36023685D1925608D
:400E000005B0F0BD7FFBFFFFF0B59FB0039005938B890E1C171C19060FD53269002A0CD1402100F0E1FA30603061002803D103990C230B60C9E04023736106AD00236B61A2
:400E400020236B763023AB763C1C2378002B03D1E21B029211D003E0252BF9D00134F4E70398311C3A1C029BFFF76EFF013000D1A6E06969029A8B186B612378002B00D130
:400E80009EE0012252426A606A4600235B3201342B60EB60AB601370AB654E4F2178381C052200F02BFA002807D0C71B2B680120B840184328600134EFE72B68D90603D59F
:400EC0006A4620215B3211701A0703D56A462B215B32117022782A2A01D0099B0EE0059A111D12680591002A01DB099204E05242EA60022213432B60013409E02278303A38
:400F0000092A04D80A214B4301349B18F6E7099323782E2B18D163782A2B09D1059B02341A1D1B680592002B0DDA01235B420AE0013400232278303A092A04D80A214B4399
:400F400001349B18F6E70793234F2178381C032200F0D4F9002806D0C71B2B684020B84018432860013421781C480622671C297600F0C4F9002812D0194B002B06D1059BEA
:400F80000722073393430833059314E005AB00930398291C321C134B00E000BF07E005AB00930398291C321C0E4B00F091F804900499013104D06A69049953186B6143E791
:400FC000B3895A0601D40B9801E0012040421FB0F0BDC0468A180000901800009418000000000000490D0000F7B5151C01930A698B68061C0C1C934200DA131C221C2B60C3
:4010000043321278002A01D001332B602068800602D52B6802332B60216806270F401FD0231C43331B785A1E9341226892061FD5E11840313020C870211C5A1C4531097885
:40104000A21840320233D17012E0221C301C019919320123089FB847013011D0009F01370097E0682968009F431A9F42EDDBD7E7221C301C01994332089FB847013002D1A4
:401080000120404223E0206806212B68E26801400025042903D1D51AEB43DB171D40A26823699A4201DDD31AED1800270097009FAF420BDA221C301C01991A320123089F7B
:4010C000B8470130DCD0009F0137EFE70020FEBDF0B50D1C8BB0433506920590079304950B7E0C1C109A6E2B00D1A7E011D8632B22D009D8002B00D1B0E0582B00D0C0E096
:4011000045310B707B4D4EE0642B1CD0692B1AD0B7E0732B00D1A5E009D86F2B29D0702B00D0AEE00E68202333430B6036E0752B1FD0782B32D0A4E013680D1C191D42351E
:4011400011601B689FE0216813680E0603D5191D11601E6805E04806F9D5191D116000215E5E644B002E3BDA049D2D2276422A7036E0216813680E0603D5191D11601E68F3
:4011800004E04806F9D5191D1E881160594B227E039308276F2A1ED00A271CE0231C78214533554D197011682368081D039510601E0601D50E6802E05806FBD50E88D90783
:4011C00002D52022134323601027002E03D1226820239A432260231C002243331A7001E003930A276368A360002B03DB2568042295432560002E02D1049D002B0ED0049D5C
:40120000301C391CFFF73EFD0398013D435C301C2B70391CFFF7F2FC061EF1D1082F09D12168C90706D5626823699A4202DC013D30232B70049E731B23612AE00868136834
:401240004969050604D5181D10601B68196005E04606F8D5181D10601B68198000232361049D16E01368191D11601D68281C00F047F963682061984200D923612069606053
:4012800004E0251C42352B7001232361049E00233370079E05980096211C09AA069BFFF7A3FE013002D10120404221E02A1C059806992369079DA8470130F4D02668B6075E
:4012C00005D4099BE068984212DA181C10E00025E0680999431A9D42F3DA221C0598069919320123079EB0470130DCD00135EFE70BB0F0BD9B180000AC180000C9B28218C5
:40130000904204D003788B4202D00130F8E70020704710B50023934203D0CC5CC4540133F9E710BD70B5814201D300230CE08C18A042FAD28518131C013B0BD35142661841
:40134000F65C6918CE54F7E7934203D0CC5CC4540133F9E770BD000030B5002940D004390B68002B00DAC9181E4A1368141C002B02D14B60116033E099420FD208680A182F
:401380009A4205D113685268C01808604A6000E04B60216024E08A4203D8131C5A68002AF9D11D685C198C420BD10968691858181960904214D114685268091919605A60FF
:4013C0000EE08C4202D90C23036009E008680C18944203D114685268001908604A60596030BDC046A401002070B50323CD1C9D430835061C0C2D01D20C2501E0002D3FDBF3
:401400008D423DD3204B1C681A1C211C002913D00868431B0DD40B2B02D90B60CC181EE08C4202D1636813601AE0486860600C1C16E00C1C4968E9E7144C2068002803D15E
:40144000301C00F04BF82060301C291C00F046F8431C15D0C41C03239C4384420AD12560201C0B300722231D9043C31A0BD05A42E25008E0211A301C00F030F80130EED1AF
:401480000C233360002070BDA4010020A0010020F8B5061C0C1C151C002904D1111CFFF7A3FF041C18E0002A03D1FFF755FF2C1C12E000F02CF8A8420ED2301C291CFFF7AD
:4014C00093FF071E07D0211C2A1CFFF722FF301C211CFFF741FF3C1C201CF8BD38B5074C0023051C081C2360FEF7FCFF431C03D12368002B00D02B6038BDC046A801002099
:401500000023C25C0133002AFBD1581E704704390B68181F002B02DAC8581B18181F70470000000025640000256300000A200D20456E74657220636F64653A000A200D2032
:40154000456E74657220636F646520616761696E20746F20636F6E6669726D3A000000000A200D20436F64657320646F206E6F74206D617463682E2045786974696E67202B
:40158000616E64206B656570696E67206F6C6420636F64652E2E2E000A200D20436F646520686173206265656E20726573657420746F200020446F6E277420666F726765F4
:4015C0007420746F206C6F636B20697420616761696E21000A200D204F7574206F662074696D6521000000000A200D20436F6D62696E6174696F6E204C6F636B2050726F35
:401600006772616D000000000A200D2053746F636B20436F6D62696E6174696F6E206973200000000A200D20496E697469616C207374617475733A20556E6C6F636B656485
:401640002E205072657373203120746F206C6F636B2C206F72203220746F2072657365742074686520636F64653A00000A200D204C6F636B65642E20456E74657220696EEB
:401680002074686520636F64653A00000A200D20556E6C6F636B656421205072657373203120746F206C6F636B20616761696E2C206F72203220746F207265736574207464
:4016C000686520636F64653A000000000A200D20596F752068617665206661696C6564203320617474656D7074732E2053797374656D206973206C6F636B65642E000000D7
:401700000A200D20496E636F72726563742E2054727920616761696E2E204661696C20617474656D707420000A200D000A200D20436F64652052657365742E20456E7465ED
:401740007220696E20796F7572206E657720636F64653A0000300F40000400400F40000401000F4028300F4008310F401F320F4014330F4002400F4003410F4002600F4012
:40178000820D405149FF4AFF4BFF4F0150185A045D095F016040624064406540668068806A806C806E80C041C9FFCAFFCBFFCD83CE03CF01D018D280DA04DB04DD99DF019B
:4017C000E040E240E440E540E680E880EA80EC80EE80420246824801740176807780D098D2080E012E0130013E01404145EC4720482349FF4AFF4BFF4D834E034F0150186D
:401800005401560458045A045B045D995F016040624064406540668068806A806C806E80060217801E8046824D044F0156025D045E805F01678087409A809B809E02C0800D
:40184000C480D090D6D0D8806F02DA808702A702E210020111010000030405060708090A0B0C0E0F101112131415161718191B1C1D1E1F2021222325262728292A2B2E2F01
:4018800030313233343500004300232D302B2000686C4C006566674546470030313233343536373839414243444546003031323334353637383961626364656600000000C3
:4018C000F8B5C046F8BC08BC9E4670479D0100005D050000F8B5C046F8BC08BC9E46704775010000F8180000C800002090000000580000000000000000000000FFFFFFFF0A
:401900003132333435000000B00100200000E02EC05D00001800000000366E01040404000000000000000000000000000000000000000000000000000000000000000000E3
:4019400088180000000000000000000000000000000000000000000000000000000000000000000000000000000000000000000000000000000000000000000000000000C7
:40198000F000002000000000000000000000000000000000000000000000000000000000000000000000000000000000000000000000000000000000000000000000000017
:4019C00000000000000000000000000000000000000000000000000000000000000000000000000000000000000000000000000000000000000000000000000000000000E7
:401A000000000000000000000000000000000000000000000000000000000000000000000000000000000000000000000000000000000000000000000000000000000000A6
:401A40000000000000000000000000000000000000000000000000000000000000000000000000000000000000000000000000000000000000000000000000000000000066
:401A80000000000000000000000000000000000000000000000000000000000000000000000000000000000000000000000000000000000000000000000000000000000026
:0200000490303A
:020000004D6051
:0200000490402A
:200000000000000000000000000000000000000000000000000000000000000000000000E0
:0200000490501A
:0C000000000204C81193110104D05EF34B
:0200000490600A
:0100000001FE
:00000001FF