:4000000000100020110000005D0200005D02000008B500F025F9C04610B5124C22688023DB0213432360182000F090F922680E4B134023600D4A0E4B1A6010220D4B1A6052
:40004000802212060C4B1A600C4A0D4B1A6009200C4900F061F9092000F052F900220A4B1A6010BD00010B40FFFFFBFF0600008004010B400C02024008010B40CF000080D6
:4000800000000240610500000C020B4038B572B600241E4D0CE063001B195B00EB1899881A8858880004104300F024F90134E4B2012CF0D999231B04154A1360EE2109022B
:4000C000144A1160144A1360144A1360144B197802220A431A70134A11783C208143142001431170197816220A431A7020230E4A1360C42189020D4A11600D4A1360D822FB
:4001000012010C4B1A60FFF787FF38BD40090000000001400C00014000500F4030500F4000700F4001700F400000044008000440180004400803044010B5064C2378002B8E
:4001400007D1054B002B02D0044800E000BF0123237010BDE000002000000000C008000008B5084B002B03D00748084900E000BF07480368002B03D0064B002B00D09847F3
:4001800008BDC04600000000C0080000E4000020C800002000000000F8B54F464646C0B4061C041C00250127184B98461AE0A21B9110D20F891839408A1A012A0CD1303B44
:4001C0005B009946092B05DD09235B4299440F4800F0C4FA4D4404E0303BED18404600F0BDFA04342368002BE1D1281C0A2100F02DFB002903D1064800F0B0FA02E00548B7
:4002000000F0ACFA0CBC90469946F8BDDC080000C4080000E008000038B5051C00F088FA041EFBD000F020FA0D2C02D100232B6001E010C5F2E738BD10B594B062B600F098
:40024000F5F9054C201C00F089FA6846FFF7E4FF6846FFF7A1FFF5E704090000FEE7C046F8B50F4F0F4E002412E031687368B568221C02E001C901C30432AA42FAD1F168EE
:40028000221C01E010C304328A42FBD11036013F002FEAD100F0E6FAFFF7CEFFFEE7C04601000000A009000038B500230D4C0E4D0E4808E0032B02D89A00515900E0211C7B
:4002C0009A00115001332F2BF4D9FFF7DFFE0022074B1A608023DB05196801220A431A6038BDC0465D0200000000000000000020C000002008B50A1C002100F0D9FA08BD13
:400300001F23184001238340181C014B1860704700E100E001BE704738B5041C0D1C1F2802D90020FFF7F6FFA400024BE4182068256038BD4000002008B5034B1B7A584369
:4003400000F01AFA08BDC046CC000020F0B557464E464546E0B4041C00F018FA8046E51E2D2D73D83F4B1B78DBB2A34208D33E4B1B78DBB29A463D4B1B78DBB2994631E0B2
:400380003B4B1B78DBB2A34208D33A4B1B78DBB29A46394B1B78DBB2994623E0374B1B78DBB2A34208D3364B1B78DBB29A46354B1B78DBB2994615E0334B1B78DBB2A342F2
:4003C00008D3324B1B78DBB29A46314B1B78DBB2994607E02F4B1B78DBB29A462E4B1B78DBB299462D4B5E5D2F2E09D92A2C07D919222B4B1A60052000F0BEF9192703E08F
:40040000274B1F683F231F40BE4206D2234B5A5D234B1A60052000F0AFF91F4AA4182278D2B2204B1A60204B52461A601F4B4A461A600520FFF780FFBE420AD9174B5A5DB1
:40044000174B1A60052000F097F902E00020FFF761FF404600F09EF91CBC90469946A246F0BDC046C0F1FF0FC1F1FF0FC2F1FF0FC3F1FF0FC4F1FF0FC5F1FF0FC6F1FF0F20
:40048000C7F1FF0FC8F1FF0FC9F1FF0FCAF1FF0FCBF1FF0FCCF1FF0FCDF1FF0F4C0900002CFF0B4028FF0B401CFF0B4020FF0B40044B1A68C0231B021A4201D0012000E0B1
:4004C0000020704700010B4008B500F05FF9044B1968C02212020A431A6000F05BF908BD00010B4010B500F051F9084B1968084A11408024E4012143196019680A408021AA
:4005000009020A431A6000F045F910BD00010B40FF3FFFFF38B5051C00F038F9041CFFF7C7FF002803D0FFF7DDFF012200E00022084B1D40084B1868084901400D431D6087
:400540001B68012A01D1FFF7BFFF201C00F022F938BDC0460404040010020B40FBFBFBFF10B5244B1B685A0715D5234B1B685A070ED5224B9C69042214401F490868A043CE
:400580000860996991439961DB68002B00D098470420FFF7BFFF174B1B685A0518D5164B1B685A0510D5154B9A698020C0001040114A1168814311609969114A0A409A61F7
:4005C0001B69002B00D098478020C000FFF7A2FF084B1B685A030CD5074B1B685A0304D5064B5B69002B00D098478020C002FFF791FF10BD10020B40DC000020FC0000206E
:40060000FFFBFFFF08B500F085F808BD08B500F039F808BD08B5044B1968802212060A431A60FFF7EFFF08BD0000074008B5064B1B78002B04D1FFF7E9FF0122024B1A70B9
:40064000FFF7E8FF08BDC04618010020014B18687047C04640030740024B1B680F2018407047C0460803074004490F220B681340082BFBD0024B18607047C046080207400B
:400680004002074010B5124A124B1A600023124A13600121114A1160114A12480260072411480460114803601148016011490A60114A1360114A1360114A1360114A136068
:4006C000114A1360114A1360114A136010BDC0460B00000200000740400007404800074007000080000307400403074010030740440007400002074004020740880E0740DC
:40070000C80E0740480F0740080F0740C80F0740880F0740044B1968044A0A40902109040A431A607047C04600000140FFFF0FFF08B5FFF791FF002802D0FFF787FF00E014
:400740000020054B1A68D8239B001A4203D01A1C014B1A60002008BDC00F074038B5051C002402E0FFF780FF0134285D0028F9D138BDC046000000000230800804D0C04607
:400780000138FDD1C046C046C0467047EFF3108072B6704780F310887047C046C046C046002941D010B4041C4C40A44601230022002900D54942002800D5404288422CD399
:4007C00001242407A14204D2814202D209011B01F8E7E400A14204D2814202D249005B00F8E7884201D3401A1A434C08A04202D3001B5C0822438C08A04202D3001B9C084F
:400800002243CC08A04202D3001BDC082243002803D01B0901D00909E3E7101C6446002C00D5404210BC7047002806D003DB0020C043400801E08020000607B4024802A146
:400840004018029003BDC046190000000029EBD003B5FFF7A7FF0EBC4243891A1847C0467047C04670B50E4B0E4D0024ED1AAD101E1CAC4204D0A300F35898470134F8E7C5
:4008800000F07CF8084B094D0024ED1AAD101E1CAC4204D0A300F35898470134F8E770BD88090000880900008809000090090000031C8218934202D019700133FAE7704738
:4008C000000000000A200D20546865206E756D6265722069732076616C69642E200000000A200D20546865206E756D626572206973206E6F742076616C69642E2000000051
:40090000256400000A200D20456E74657220746865206E756D62657220796F752764206C696B6520746F20636865636B20776974682074686520666F726D756C613A200034
:4009400000300F40000400400F400004030405060708090A0B0C0E0F101112131415161718191B1C1D1E1F2021222325262728292A2B2E2F3031323334350000F8B5C046BE
:40098000F8BC08BC9E46704761010000A9020000F8B5C046F8BC08BC9E46704739010000B0090000C80000201800000040000000000000000000E02EC05D000018000000DB
:4009C00000366E0104040400000000000000000000000000000000000000000000000000000000000000000000000000000000000000000000000000000000000000000046
:400A000000000000000000000000000000000000000000000000000000000000000000000000000000000000000000000000000000000000000000000000000000000000B6
:400A40000000000000000000000000000000000000000000000000000000000000000000000000000000000000000000000000000000000000000000000000000000000076
:400A80000000000000000000000000000000000000000000000000000000000000000000000000000000000000000000000000000000000000000000000000000000000036
:400AC00000000000000000000000000000000000000000000000000000000000000000000000000000000000000000000000000000000000000000000000000000000000F6
:0200000490303A
:020000002A3A9A
:0200000490402A
:200000000000000000000000000000000000000000000000000000000000000000000000E0
:0200000490501A
:0C000000000204C81193110104CB3BCD99
:0200000490600A
:0100000001FE
:00000001FF